:020000040800F2
:10000000180400209D010008FD0300088D0300086E
:10001000F90300081102000873090008000000003D
:10002000000000000000000000000000290500089A
:100030001502000800000000FF030008ED0700089B
:10004000B7010008B7010008B7010008B7010008B0
:10005000B7010008B7010008B7010008B7010008A0
:10006000B7010008B7010008B7010008B701000890
:10007000B7010008B7010008B7010008B701000880
:10008000B7010008B7010008B7010008B701000870
:10009000B7010008B7010008B7010008B701000860
:1000A000B7010008B7010008B7010008B701000850
:1000B000B7010008B7010008B7010008B701000840
:1000C000B7010008B7010008B7010008B701000830
:1000D000B7010008B7010008B7010008B701000820
:1000E000B7010008B7010008B7010008B701000810
:1000F000B7010008B7010008B7010008B701000800
:10010000B7010008B7010008B7010008B7010008EF
:10011000B7010008B7010008B7010008B7010008DF
:10012000B7010008B7010008B7010008B7010008CF
:10013000B7010008B7010008B7010008B7010008BF
:10014000B7010008B7010008B7010008B7010008AF
:10015000B7010008B7010008B7010008B70100089F
:10016000B7010008B7010008B7010008B70100088F
:10017000B7010008B7010008B7010008B70100087F
:10018000B7010008B7010008DFF80CD000F02EF826
:1001900000480047B90B00081804002006488047B3
:1001A00006480047FEE7FEE7FEE7FEE7FEE7FEE75C
:1001B000FEE7FEE7FEE7FEE7F10700088901000819
:1001C00030B50B46014600202022012409E021FA27
:1001D00002F59D4205D303FA02F5491B04FA02F524
:1001E0002844151EA2F10102F1DC30BD064C074D7A
:1001F00006E0E06840F0010394E8070098471034F7
:10020000AC42F6D3FFF7C4FFF00C0008100D000855
:1002100000BFFEE77047000000B587B00121084627
:1002200000F0EEF800208DF81A0001208DF81B0078
:1002300002208DF819008DF818000002059005A91C
:10024000184800F033F84FF48060059005A9154870
:1002500000F02CF807220A21124800F06FF807225C
:100260000921104800F06AF80121102000F0D8F8A8
:100270004FF4E13001900020ADF80800ADF80A001D
:10028000ADF80C00ADF810000C20ADF80E0001A97F
:10029000054800F0FBFA0121034800F0DDFA07B041
:1002A00000BD00000000024000100140F0B50A4609
:1002B00000210023002400BF3DE0012505FA01F3E1
:1002C000156805EA03049C4234D105684F000326F3
:1002D000BE40B543056015794E00B540066835430C
:1002E00005601579012D02D01579022D16D185688A
:1002F0004F000326BE40B543856055794E00B5409A
:10030000866835438560456801268E40B543456063
:10031000456896798E40B6B235434560C5684F0052
:100320000326BE40B543C560D5794E00B540C668CA
:100330003543C560491C1029BFD3F0BDF0B500237B
:1003400000244D07ED0E02FA05F3CE1000F1200552
:1003500055F826504E07F70E0F26BE40B543CF1076
:1003600000F1200646F82750CE1000F1200555F880
:10037000265045EA0304CE1000F1200545F826403A
:10038000F0BD0A04826170478161704700BFFEE7DB
:100390001CB50121202000F033F8402000900120FE
:1003A0008DF8040000208DF806008DF8050001206E
:1003B0008DF8070069460F48FFF778FF802000900E
:1003C00069460C48FFF772FF4FF480700090694651
:1003D0000848FFF76BFF40210648FFF7D5FF802153
:1003E0000448FFF7D1FF4FF480710248FFF7CCFFBC
:1003F0001CBD00000014024000BFFEE770477047BC
:1004000029B1064A12680243044B1A6004E0034A09
:1004100012688243014B1A60704700003038024076
:1004200029B1064A12680243044B1A6004E0034AE9
:1004300012688243014B1A60704700004438024042
:10044000F0B5002100220024022500260223324FAD
:100450003F6807F00C0121B1042905D0082937D1E4
:1004600005E02E4F076036E02D4F076033E02A4F3E
:100470003F1F3F68C7F38056274F3F1F3F6807F075
:100480003F036EB1264FB7FBF3F7DFF88CC0ACF13A
:10049000040CDCF800C0CCF3881C07FB0CF40CE067
:1004A0001E4FB7FBF3F7DFF870C0ACF1040CDCF8BB
:1004B00000C0CCF3881C07FB0CF4174F3F1F3F68AC
:1004C000C7F301477F1C7D00B4FBF5F7076002E02E
:1004D000124F076000BF00BF0F4F3F6807F0F001E9
:1004E0000909104F7A5C0768D74047600A4F3F6898
:1004F00007F4E051890A0B4F7A5C4768D740876060
:10050000054F3F6807F46041490B064F7A5C476826
:10051000D740C760F0BD0000083802400024F40056
:1005200040787D0100000020704700000CB50020DD
:10053000019000903448006840F4803032490860EF
:1005400000BF3148006800F4003000900198401C62
:100550000190009818B90198B0F5A04FF1D12A4840
:10056000006800F4003010B10120009001E000208C
:1005700000900098012846D123484030006840F0A0
:1005800080502149403108602048006840F44040D4
:100590001E4908601C48083000681B490831086083
:1005A0000846006840F4004008600846006840F4CF
:1005B000A05008601648091F0860081F006840F036
:1005C0008070091F086000BF0F48006800F00070CD
:1005D0000028F9D040F205700E4908600A4808303A
:1005E000006820F0030008490831086008460068E8
:1005F00040F00200086000BF03480830006800F0C7
:100600000C000828F8D10CBD0038024000700040F2
:1006100019544007003C024010B513A000F0ACF99B
:100620004FF4E1311CA000F0A7F924A000F0A4F9D8
:100630002FA000F0A1F935A000F09EF93AA000F03B
:100640009BF940A000F098F945A000F095F94BA067
:1006500000F092F950A000F08FF956A000F08CF94C
:100660005BA000F089F910BD0D0A202020D5E2CA58
:10067000C7D2BBB8F6CDA8B9FDB4AEBFDACDA8D00D
:10068000C5D6B8C1EEBFD8D6C6524742B2CAB5C663
:10069000CAB5D1E9200A0000CAB9D3C320205553F6
:1006A000415254312020B2CECAFDCEAAA3BA25644D
:1006B00020382D4E2D31200A00000000BFAAB7A21D
:1006C000B0E5BDD3B5BDD6B8C1EEBAF3BFD8D6C676
:1006D000524742B2CAB5C6D1D5C9ABA3ACD6B8C190
:1006E000EEB6D4D3A6C8E7CFC2A3BA0A0000000072
:1006F000202020D6B8C1EE2020202D2D2D2D2D2DEF
:1007000020B2CAB5C6D1D5C9AB200A00202020200E
:100710002031202020202D2D2D2D2D2D202020207A
:10072000BAEC200A000000002020202020322020E7
:1007300020202D2D2D2D2D2D20202020C2CC200A33
:1007400000000000202020202033202020202D2DFC
:100750002D2D2D2D20202020C0B6200A00000000C5
:10076000202020202034202020202D2D2D2D2D2D27
:1007700020202020BBC6200A0000000020202020CE
:100780002035202020202D2D2D2D2D2D2020202006
:10079000D7CF200A00000000202020202036202073
:1007A00020202D2D2D2D2D2D20202020C7E0200AAA
:1007B00000000000202020202037202020202D2D88
:1007C0002D2D2D2D20202020B0D7200A0000000044
:1007D000202020202038202020202D2D2D2D2D2DB3
:1007E00020202020C3F0200A0000000070470000F5
:1007F00010B51548006840F47000134908601348AC
:10080000006840F001001149086000200F490831DC
:1008100008600E4800680E4908400C4908600D4801
:10082000091D0860081F006820F48020091F086067
:10083000002006490C310860FFF778FE4FF0006099
:1008400001498039086010BD88ED00E000380240A1
:10085000FFFFF6FE1030002421B1828942F40052DD
:10086000828104E082894DF6FF731A4082817047CD
:1008700002460020B1F5007F00D100BF13880B4075
:100880000BB1012000E00020704700002DE9FF4778
:1008900005460E460024A14600BFA046B08900B11F
:1008A00000BF2C8A24F44054F08804432C82AC8985
:1008B00041F20C608443B088318908437189084350
:1008C0000443AC81AC8A24F44074B0890443AC8204
:1008D0006846FFF7B5FD2048854202D01F48854293
:1008E00002D1DDF80C9001E0DDF80890A88900F451
:1008F000004040B109EBC90000EB09103168490024
:10090000B0FBF1F707E009EBC90000EB0910316813
:100910008900B0FBF1F76420B7FBF0F00401200977
:10092000642101FB1078A88900F4004040B1322016
:1009300000EBC800B0FBF1F000F00700044308E052
:10094000322000EB08106421B0FBF1F000F00F0042
:1009500004432C81BDE8FF870010014000140140D2
:1009600001468888C0F308007047C1F308028280FE
:10097000704700BFFEE700000FB4054B10B503A998
:10098000044A029800F018F810BC5DF814FB00004F
:10099000910B00081400002002E008C8121F08C1D3
:1009A000002AFAD170477047002001E001C1121FF0
:1009B000002AFBD1704700002DE9FF4F8BB09A460B
:1009C0000F460546002606E025280BD052460D9915
:1009D00090476D1C761C28780028F5D10FB0304662
:1009E000BDE8F08F0024A0460122604900E00443E6
:1009F00015F8013F203B02FA03F00842F7D12878AE
:100A00002E2817D115F8010F44F004042A280ED01F
:100A10006FF02F022878A0F1300109290AD808EBDD
:100A2000880102EB410100EB01086D1CF2E757F869
:100A3000048B6D1C287869283ED006DC0028CDD0B8
:100A400063280BD0642804D136E0732810D07528B1
:100A50004BD052460D999047761C85E017F8040B51
:100A60008DF8000000208DF80100E946012003E028
:100A700057F8049B4FF0FF3061074FF0000401D49A
:100A80000AE0641C44450DDA8442FADB19F80410CC
:100A90000029F6D106E0641C8442FCDB19F804103E
:100AA0000029F8D1264404E019F8010B52460D99AB
:100AB0009047641EF8D257E001CF4FF00A0B002890
:100AC00002DA40422D2102E0210504D52B218DF8C8
:100AD0002410012103E0E10705D02021F7E70DF103
:100AE000200908910CE00021F9E701CF4FF00A0B33
:100AF000F9E75946FFF764FB01F1300209F8012DCF
:100B00000028F6D1ADEB090000F1200B600701D4FD
:100B10004FF00108D84502DDA8EB0B0000E00020F3
:100B20008046002406E009A85246005D0D999047D2
:100B3000641C761C08988442F5DB04E030205246A1
:100B40000D999047761CB8F10001A8F10108F5DC79
:100B500005E019F8010B52460D999047761CBBF140
:100B60000001ABF1010BF4DC6D1C34E70928010036
:100B700010B5044600BF20210448FFF779FE002885
:100B8000F9D00248FFF7ECFE10BD00000010014054
:100B900070B504460D46E1B20548FFF7E6FE00BF1A
:100BA00080210348FFF764FE0028F9D0204670BD7D
:100BB00000100140FFF7DCBFFFF7EAFBFFF72CFB5B
:100BC000FFF72AFD86E04448FFF7F4FFC4B2214650
:100BD00042A0FFF7D1FEA4F13100082876D2DFE869
:100BE00000F00412202E3C4A586640213F48FFF78F
:100BF000C8FB80213D48FFF7C7FB4FF480713B489D
:100C0000FFF7C2FB65E040213848FFF7BDFB8021BC
:100C10003648FFF7B6FB4FF480713448FFF7B4FB5A
:100C200057E040213148FFF7AFFB80212F48FFF705
:100C3000ABFB4FF480712D48FFF7A3FB49E0402147
:100C40002A48FFF79EFB80212848FFF79AFB4FF4C4
:100C500080712648FFF798FB3BE040212348FFF7CF
:100C600090FB80212148FFF78FFB4FF480711F48D4
:100C7000FFF787FB2DE040211C48FFF785FB802113
:100C80001A48FFF77EFB4FF480711848FFF779FB95
:100C90001FE040211548FFF774FB80211348FFF740
:100CA00070FB4FF480711148FFF76BFB11E040219E
:100CB0000E48FFF769FB80210C48FFF765FB4FF4F6
:100CC00080710A48FFF760FB03E0FFE7FFF7A4FC31
:100CD00000BF00BF77E7000010000020BDD3CAD5D9
:100CE000B5BDD7D6B7FBA3BA25630A0000140240EE
:100CF000100D0008000000201800000098090008EE
:100D0000280D00081800002000040000A8090008B1
:100D100000000000010203040102030406070809A1
:080D20000000000000000000CB
:040000050800018965
:00000001FF
