:020000040800F2
:10000000000400209D01000881040008110400087C
:100010007D040008E5010008050700080000000055
:10002000000000000000000000000000690500085A
:10003000E9010008000000002505000899060008F5
:10004000B7010008B7010008B7010008B7010008B0
:10005000B7010008B7010008ED010008B70100086A
:10006000B7010008B7010008B7010008B701000890
:10007000B7010008B7010008B7010008B701000880
:10008000B7010008B7010008B7010008B701000870
:10009000B7010008B7010008B7010008B701000860
:1000A000B7010008B7010008B7010008B701000850
:1000B000B7010008B7010008B7010008B701000840
:1000C000B7010008B7010008B7010008B701000830
:1000D000B7010008B7010008B7010008B701000820
:1000E0000D020008B7010008B7010008B7010008B9
:1000F000B7010008B7010008B7010008B701000800
:10010000B7010008B7010008B7010008B7010008EF
:10011000B7010008B7010008B7010008B7010008DF
:10012000B7010008B7010008B7010008B7010008CF
:10013000B7010008B7010008B7010008B7010008BF
:10014000B7010008B7010008B7010008B7010008AF
:10015000B7010008B7010008B7010008B70100089F
:10016000B7010008B7010008B7010008B70100088F
:10017000B7010008B7010008B7010008B70100087F
:10018000B7010008B7010008DFF80CD000F018F83C
:100190000048004727070008000400200648804761
:1001A00006480047FEE7FEE7FEE7FEE7FEE7FEE75C
:1001B000FEE7FEE7FEE7FEE79D060008890100086E
:1001C000064C074D06E0E06840F0010394E80700A4
:1001D00098471034AC42F6D3FFF7DAFF3407000833
:1001E0004407000800BFFEE77047000010B501207B
:1001F00000F024F830B14021034800F005F9012057
:1002000000F016F810BD00000014024010B54FF4C5
:10021000005000F013F838B18021044800F0F4F8E1
:100220004FF4005000F004F810BD0000001402402C
:100230000149086070470000143C0140014600205D
:10024000034A12680A400AB1012000E0002070470A
:10025000143C0140002123498279002A3AD00A4601
:10026000126803689A430B461A600A1D12680368F5
:100270009A430B1D1A60027911440A6803681A43F5
:100280000A60184A0832126803689A43154B08330B
:100290001A601A1D126803689A43124B0C331A60D5
:1002A0004279102A0ED11A1F126803681A430D4BA7
:1002B00008331A601A1D126803681A43094B0C337D
:1002C0001A600DE00749427911440A6803681A432D
:1002D0000A6005E0027911440A6803689A430A60DB
:1002E00070470000003C01401FB50121052000F0CF
:1002F0001BF90120029000208DF80C008DF80F00F2
:1003000002A91A4800F036F84FF40050029002A9F2
:10031000174800F02FF80121880300F015F900219B
:10032000084600F023F9012000908DF80600002017
:100330008DF8040008208DF805006846FFF78AFF55
:100340000D21022000F012F94FF40050009001201E
:100350008DF8060000208DF804000C208DF80500B3
:100360006846FFF777FF00F08CF81FBD00000240E1
:1003700000080240F0B50A4600210023002400BF17
:100380003DE0012505FA01F3156805EA03049C42E6
:1003900034D105684F000326BE40B543056015798A
:1003A0004E00B5400668354305601579012D02D031
:1003B0001579022D16D185684F000326BE40B5433E
:1003C000856055794E00B54086683543856045683F
:1003D00001268E40B5434560456896798E40B6B299
:1003E00035434560C5684F000326BE40B543C56030
:1003F000D5794E00B540C6683543C560491C102903
:10040000BFD3F0BD8161704742694A404261704785
:1004100000BFFEE71CB50121202000F085F8402038
:10042000009001208DF8040000208DF806008DF862
:10043000050001208DF8070069460F48FFF79AFF75
:100440008020009069460C48FFF794FF4FF48070BD
:10045000009069460848FFF78DFF40210648FFF7E6
:10046000D1FF80210448FFF7CDFF4FF4807102488F
:10047000FFF7C8FF1CBD00000014024000BFFEE7EC
:10048000704708B506208DF8000001208DF80300A4
:100490008DF801008DF80200684600F007F828206A
:1004A0008DF80000684600F001F808BD70B5002125
:1004B00000230F22C4781CB3174C246804F4E064B2
:1004C000C4F5E064C4F30721C1F10404E3B20A41B6
:1004D00044789C40E1B28478144021430C07210EFB
:1004E0000E4C05786155047804F01F050124AC40DA
:1004F00005786D11AD0005F1E025C5F8004109E072
:10050000047804F01F050124AC40054D06787611EF
:1005100045F8264070BD00000CED00E000E400E06E
:1005200080E100E07047000029B1064A12680243EA
:10053000044B1A6004E0034A12688243014B1A60BC
:10054000704700003038024029B1064A1268024361
:10055000044B1A6004E0034A12688243014B1A609C
:1005600070470000443802407047000030B5002258
:100570008B071C0F0F2303FA04F20B4B8C1053F85C
:1005800024309343084C8D1044F8253023468C10BA
:1005900053F824308C07240F00FA04F42343024C50
:1005A0008D1044F8253030BD083801400CB50020CE
:1005B000019000903448006840F48030324908606F
:1005C00000BF3148006800F4003000900198401CE2
:1005D0000190009818B90198B0F5A04FF1D12A48C0
:1005E000006800F4003010B10120009001E000200C
:1005F00000900098012846D123484030006840F020
:1006000080502149403108602048006840F4404053
:100610001E4908601C48083000681B490831086002
:100620000846006840F4004008600846006840F44E
:10063000A05008601648091F0860081F006840F0B5
:100640008070091F086000BF0F48006800F000704C
:100650000028F9D040F205700E4908600A480830B9
:10066000006820F003000849083108600846006867
:1006700040F00200086000BF03480830006800F046
:100680000C000828F8D10CBD003802400070004072
:1006900019544007003C02407047000010B515484F
:1006A000006840F47000134908601348006840F087
:1006B00001001149086000200F49083108600E4808
:1006C00000680E4908400C4908600D48091D086083
:1006D000081F006820F48020091F086000200649D8
:1006E0000C310860FFF762FF4FF00060014980396C
:1006F000086010BD88ED00E000380240FFFFF6FE04
:100700001030002400BFFEE702E008C8121F08C135
:10071000002AFAD170477047002001E001C1121F82
:10072000002AFBD17047FFF775FEFFF7DDFD00BF24
:10073000FEE700004407000800000020000400005D
:04074000180700088E
:040000050800018965
:00000001FF
