:020000040800F2
:10000000380400209D010008DD0300086B03000890
:10001000D9030008E5010008730B00080000000088
:1000200000000000000000000000000021060008A1
:10003000E90100080000000095040008110700080D
:10004000B7010008B7010008B7010008B7010008B0
:10005000B7010008B7010008B7010008B7010008A0
:10006000B7010008B7010008B7010008B701000890
:10007000B7010008B7010008B7010008B701000880
:10008000B7010008B7010008B7010008B701000870
:10009000B7010008B7010008B7010008B701000860
:1000A000B7010008B7010008B7010008B701000850
:1000B000B7010008B7010008B7010008B701000840
:1000C000B7010008B7010008B7010008B701000830
:1000D000B7010008B701000879080008B701000857
:1000E000B7010008B7010008B7010008B701000810
:1000F000B7010008B7010008B7010008B701000800
:10010000B7010008B7010008B7010008B7010008EF
:10011000B7010008B7010008B7010008B7010008DF
:10012000B7010008B7010008B7010008B7010008CF
:10013000B7010008B7010008B7010008B7010008BF
:10014000B7010008B7010008B7010008B7010008AF
:10015000B7010008B7010008B7010008B70100089F
:10016000B7010008B7010008B7010008B70100088F
:10017000B7010008B7010008B7010008B70100087F
:10018000B7010008B7010008DFF80CD000F018F83C
:1001900000480047190D0008380400200648804731
:1001A00006480047FEE7FEE7FEE7FEE7FEE7FEE75C
:1001B000FEE7FEE7FEE7FEE71507000889010008F5
:1001C000064C074D06E0E06840F0010394E80700A4
:1001D00098471034AC42F6D3FFF7DAFF2C0E000834
:1001E0004C0E000800BFFEE77047000000B587B066
:1001F0000121084600F050F900208DF81A00012076
:100200008DF81B0002208DF819008DF818000002EF
:10021000059005A9184800F038F84FF48060059063
:1002200005A9154800F031F807220A21124800F00C
:1002300074F807220921104800F06FF801211020FE
:1002400000F05AF94FF4165001900020ADF8080064
:10025000ADF80A00ADF80C00ADF810000C20ADF8B8
:100260000E0001A9054800F011FC0121034800F02F
:100270002DFB07B000BD000000000240001001404F
:1002800000E0401E0028FCD17047F0B50A4600216E
:100290000023002400BF3DE0012505FA01F31568A5
:1002A00005EA03049C4234D105684F000326BE4092
:1002B000B543056015794E00B540066835430560C5
:1002C0001579012D02D01579022D16D185684F00C0
:1002D0000326BE40B543856055794E00B54086681B
:1002E00035438560456801268E40B54345604568C5
:1002F00096798E40B6B235434560C5684F000326F7
:10030000BE40B543C560D5794E00B540C66835439B
:10031000C560491C1029BFD3F0BDF0B500230024EF
:100320004D07ED0E02FA05F3CE1000F1200555F849
:1003300026504E07F70E0F26BE40B543CF1000F1F2
:10034000200646F82750CE1000F1200555F826501B
:1003500045EA0304CE1000F1200545F82640F0BD23
:100360000A04826170478161704700BFFEE70000A8
:100370001CB50121202000F08FF8402000900120C2
:100380008DF8040000208DF806008DF8050001208E
:100390008DF8070069460F48FFF777FF802000902F
:1003A00069460C48FFF771FF4FF480700090694672
:1003B0000848FFF76AFF40210648FFF7D4FF802175
:1003C0000448FFF7D0FF4FF480710248FFF7CBFFDE
:1003D0001CBD00000014024000BFFEE7704708B5D6
:1003E0004FF4E06000F04CF826208DF80000022069
:1003F0008DF801008DF8020001208DF80300684699
:1004000000F002F808BD000070B5002100230F22A3
:10041000C4781CB3174C246804F4E064C4F5E064A9
:10042000C4F30721C1F10404E3B20A4144789C40BB
:10043000E1B28478144021430C07210E0E4C05785C
:100440006155047804F01F050124AC4005786D1156
:10045000AD0005F1E025C5F8004109E0047804F09D
:100460001F050124AC40054D0678761145F826405D
:1004700070BD00000CED00E000E400E080E100E071
:1004800002490143024A1160704700000000FA056A
:100490000CED00E07047000029B1064A12680243E3
:1004A000044B1A6004E0034A12688243014B1A604D
:1004B000704700003038024029B1064A12680243F2
:1004C000044B1A6004E0034A12688243014B1A602D
:1004D000704700004038024029B1064A12680243C2
:1004E000044B1A6004E0034A12688243014B1A600D
:1004F000704700002038024029B1064A12680243C2
:10050000044B1A6004E0034A12688243014B1A60EC
:10051000704700004438024029B1064A126802437D
:10052000044B1A6004E0034A12688243014B1A60CC
:100530007047000024380240F0B50021002200245A
:10054000022500260223324F3F6807F00C0121B13B
:10055000042905D0082937D105E02E4F076036E081
:100560002D4F076033E02A4F3F1F3F68C7F3805687
:10057000274F3F1F3F6807F03F036EB1264FB7FB81
:10058000F3F7DFF88CC0ACF1040CDCF800C0CCF35E
:10059000881C07FB0CF40CE01E4FB7FBF3F7DFF8E9
:1005A00070C0ACF1040CDCF800C0CCF3881C07FB75
:1005B0000CF4174F3F1F3F68C7F301477F1C7D00B6
:1005C000B4FBF5F7076002E0124F076000BF00BF01
:1005D0000F4F3F6807F0F0010909104F7A5C076878
:1005E000D74047600A4F3F6807F4E051890A0B4F34
:1005F0007A5C4768D7408760054F3F6807F46041E1
:10060000490B064F7A5C4768D740C760F0BD0000D1
:10061000083802400024F40040787D0100000020EA
:10062000704700000CB5002001900090344800682D
:1006300040F480303249086000BF3148006800F45F
:10064000003000900198401C0190009818B9019862
:10065000B0F5A04FF1D12A48006800F4003010B185
:100660000120009001E0002000900098012846D170
:1006700023484030006840F08050214940310860F4
:100680002048006840F440401E4908601C4808307B
:1006900000681B49083108600846006840F40040C3
:1006A00008600846006840F4A05008601648091F1A
:1006B0000860081F006840F08070091F086000BFD4
:1006C0000F48006800F000700028F9D040F2057073
:1006D0000E4908600A480830006820F00300084905
:1006E000083108600846006840F00200086000BF5A
:1006F00003480830006800F00C000828F8D10CBD51
:10070000003802400070004019544007003C02408D
:100710007047000010B51548006840F47000134998
:1007200008601348006840F001001149086000208B
:100730000F49083108600E4800680E4908400C490E
:1007400008600D48091D0860081F006820F480201B
:10075000091F0860002006490C310860FFF762FF9E
:100760004FF0006001498039086010BD88ED00E05D
:1007700000380240FFFFF6FE103000241AB18389D2
:100780000B43838102E083898B43838170470000A0
:1007900000220288184B98420ED0184B98420BD07A
:1007A000B0F1804F08D0164B984205D0154B9842B7
:1007B00002D0154B984204D14FF68F731A404B88E4
:1007C0001A43124B984207D0114B984204D04FF66F
:1007D000FF431A400B891A4302804B68C3620B889F
:1007E0000385054B984202D0044B984201D18B7A85
:1007F000038601238382704700000140000401400A
:100800000004004000080040000C004000100040C0
:10081000001400401FB501212020FFF74DFE0020ED
:10082000ADF80C00ADF806001148007800EB800030
:100830004000029041F61F40ADF8040001A90D48A8
:10084000FFF7A6FF012211460A48FFF797FF37205E
:100850008DF8000002208DF8010003208DF80200C1
:1008600001208DF803006846FFF7CEFD1FBD000094
:100870001A0000200014004010B540F225510F4826
:1008800000F0B5F8C0B10D4800F06AF90C490D4A06
:10089000127888540B480078401C0A4908700846B2
:1008A0000078401E0649085CE72805D1012006496A
:1008B000087000200349087010BD0000004400408B
:1008C00020000020190000201000002021B18289A2
:1008D00042F40052828104E082894DF6FF731A408F
:1008E0008281704710B504463248844208D1012104
:1008F0001020FFF711FE00211020FFF70DFE57E03A
:100900002D48844209D101214804FFF7E5FD00216B
:100910004FF40030FFF7E0FD4AE02848844209D157
:1009200001218804FFF7D8FD00214FF48020FFF754
:10093000D3FD3DE02248844209D10121C804FFF7DC
:10094000CBFD00214FF40020FFF7C6FD30E01D482D
:10095000844209D101210805FFF7BEFD00214FF4B3
:100960008010FFF7B9FD23E01748844208D1012128
:100970002020FFF7D1FD00212020FFF7CDFD17E05B
:100980001248844209D101218807FFF7A5FD002103
:100990004FF08040FFF7A0FD0AE00D48844207D1E8
:1009A00001214005FFF798FD00216005FFF794FD48
:1009B00010BD00000010014000440040004800400D
:1009C000004C0040005000400014014000780040FE
:1009D000007C004002460020B1F5007F00D100BF3E
:1009E00013880B400BB1012000E00020704770B568
:1009F0000246002400230025002040F66A16B1427A
:100A000000D100BFC1F3421501F01F03012606FA11
:100A100003F3012D02D19689334006E0022D02D165
:100A2000168A334001E0968A33400C12012606FAFA
:100A300004F41688344013B10CB1012000E000200A
:100A400070BDF0B50346002400260025002040F6C6
:100A50006A17B94200D100BF1846C1F3421401F031
:100A60001F06012707FA06F5012C01D10C3004E01E
:100A7000022C01D1103000E014301AB107682F4366
:100A8000076002E00768AF430760F0BD2DE9FF474C
:100A900005460E460024A14600BFA046B08900B11D
:100AA00000BF2C8A24F44054F08804432C82AC8983
:100AB00041F20C608443B08831890843718908434E
:100AC0000443AC81AC8A24F44074B0890443AC8202
:100AD0006846FFF731FD2048854202D01F48854215
:100AE00002D1DDF80C9001E0DDF80890A88900F44F
:100AF000004040B109EBC90000EB09103168490022
:100B0000B0FBF1F707E009EBC90000EB0910316811
:100B10008900B0FBF1F76420B7FBF0F00401200975
:100B2000642101FB1078A88900F4004040B1322014
:100B300000EBC800B0FBF1F000F00700044308E050
:100B4000322000EB08106421B0FBF1F000F00F0040
:100B500004432C81BDE8FF870010014000140140D0
:100B600001468888C0F308007047C1F308028280FC
:100B7000704700BFFEE770B504460D462946204683
:100B8000FFF7F3FF00BF80212046FFF723FF002877
:100B9000F9D070BD00B587B001210520FFF77CFCBE
:100BA00001214804FFF788FC072203212D48FFF7A5
:100BB000B4FB072202212B48FFF7AFFB00208DF882
:100BC0001A008DF81B0002208DF8180004200590F3
:100BD00002208DF8190005A92248FFF756FB0220D4
:100BE0008DF818000820059005A91E48FFF74DFB59
:100BF00000208DF81A008DF81B0001208DF81800D8
:100C0000059002208DF8190005A91748FFF73DFB54
:100C10001648FFF767FE4FF4165001900020ADF81C
:100C20000800ADF80A00ADF80C00ADF810000C207B
:100C3000ADF80E0001A90D48FFF728FF01210B4870
:100C4000FFF744FE012240F225510848FFF7F9FE64
:100C5000FFF7C5FB01210448FFF782FBFFF7DAFD30
:100C600007B000BD00000240000802400044004000
:100C700010B5044621460548FFF777FF00BF8021E5
:100C80000248FFF7A7FE0028F9D010BD004400403D
:100C900001B502E00098401E009000980028F9D1AC
:100CA00008BD0000014A024900F013B8F50C000825
:100CB0001C00002002E008C8121F08C1002AFAD157
:100CC00070477047002001E001C1121F002AFBD1CC
:100CD00070472DE9F04116460F460446002503E013
:100CE0003946B047641C6D1C20780028F8D128468E
:100CF000BDE8F08170B504460D46E1B20548FFF746
:100D000034FF00BF80210348FFF764FE0028F9D0BC
:100D1000204670BD001001400024FFF729FBFFF7BB
:100D200065FAFFF737FF40212E48FFF71CFB8021B3
:100D30002C48FFF718FB4FF480712A48FFF710FB8F
:100D400029A0FFF7AFFF4FF47A70FFF7A1FF012151
:100D50002C48FFF708FB4FF47A70FFF799FF00BFAC
:100D600009E02949085DFFF783FF4FF6FF70FFF7A1
:100D700087FA601CC4B2082CF3DB4FF6FF70FFF754
:100D80007FFA4FF47A70FFF783FF01211D48FFF7C8
:100D9000E7FA4FF47A70FFF77BFF40211148FFF725
:100DA000E2FA80210F48FFF7DBFA4FF480710D481B
:100DB000FFF7D9FA15A0FFF775FF11E01848007882
:100DC00001280DD1002406E01648015D1648FFF702
:100DD000D2FE601CC4B20A2CF6DB00201049087059
:100DE000ECE70000001402400D0A20343835B6C18B
:100DF000C8A1C8DCBDE2D1F5CAB5D1E9C0FDB3CC0C
:100E00000D0A000000080240110000200D0AB7A2E0
:100E1000CBCDD6B8C1EEB3C9B9A6A3A10D0A0000C7
:100E20001000002020000020001001404C0E00089F
:100E30000000002020000000B40C00086C0E000828
:100E40002000002018040000C40C0008000000006E
:100E5000010203040102030406070809000103005C
:0C0E600001000295CB000400000000001F
:040000050800018965
:00000001FF
