:020000040800F2
:10000000280400209D01000807040008FF030008E1
:1000100003040008E50100081F09000800000000B3
:1000200000000000000000000000000009060008B9
:10003000E901000800000000BD040008F9060008FE
:10004000B7010008B7010008B7010008B7010008B0
:10005000B7010008B7010008B7010008B7010008A0
:10006000B7010008B7010008B7010008B701000890
:10007000B7010008B7010008B7010008B701000880
:10008000B7010008B7010008B7010008B701000870
:10009000B7010008B7010008B7010008B701000860
:1000A000B7010008B7010008B7010008B701000850
:1000B000B7010008B7010008B7010008B701000840
:1000C000B7010008B7010008B7010008B701000830
:1000D000B7010008B701000865070008B70100086C
:1000E000B7010008B7010008B7010008B701000810
:1000F000B7010008B7010008B7010008B701000800
:10010000B7010008B7010008B7010008B7010008EF
:10011000B7010008B7010008B7010008B7010008DF
:10012000B7010008B7010008B7010008B7010008CF
:10013000B7010008B7010008B7010008B7010008BF
:10014000B7010008B7010008B7010008B7010008AF
:10015000B7010008B7010008B7010008B70100089F
:10016000B7010008B7010008B7010008B70100088F
:10017000B7010008B7010008B7010008B70100087F
:10018000B7010008B7010008DFF80CD000F018F83C
:1001900000480047890900082804002006488047D5
:1001A00006480047FEE7FEE7FEE7FEE7FEE7FEE75C
:1001B000FEE7FEE7FEE7FEE7FD060008890100080E
:1001C000064C074D06E0E06840F0010394E80700A4
:1001D00098471034AC42F6D3FFF7DAFFE409000881
:1001E000040A000800BFFEE77047000000B587B0B2
:1001F0000121084600F064F900208DF81A00012062
:100200008DF81B0002208DF819008DF818000002EF
:10021000059005A9184800F087F84FF48060059014
:1002200005A9154800F080F807220A21124800F0BD
:10023000C3F807220921104800F0BEF80121102060
:1002400000F05EF94FF4165001900020ADF8080060
:10025000ADF80A00ADF80C00ADF810000820ADF8BC
:100260000E0001A9054800F0E7FA0121034800F05B
:10027000A5FA07B000BD00000000024000100140D8
:1002800000B587B00121084600F01AF900208DF86A
:100290001A0001208DF81B0002208DF819008DF83E
:1002A00018000420059005A91D4800F03DF8022023
:1002B0008DF818000820059005A9194800F034F8B9
:1002C00007220221164800F077F80722032114487C
:1002D00000F072F80121480400F002F94FF41650C2
:1002E00001900020ADF80800ADF80A00ADF80C0050
:1002F000ADF810000C20ADF80E0001A9094800F07F
:100300009BFA00F081F8012240F22551054800F0E7
:100310006EFA0121034800F051FA07B000BD000059
:100320000000024000440040F0B50A4600210023CE
:10033000002400BF3DE0012505FA01F3156805EA38
:1003400003049C4234D105684F000326BE40B543E8
:10035000056015794E00B54006683543056015798E
:10036000012D02D01579022D16D185684F00032684
:10037000BE40B543856055794E00B540866835432B
:100380008560456801268E40B5434560456896798D
:100390008E40B6B235434560C5684F000326BE4067
:1003A000B543C560D5794E00B540C6683543C560D4
:1003B000491C1029BFD3F0BDF0B5002300244D0720
:1003C000ED0E02FA05F3CE1000F1200555F8265087
:1003D0004E07F70E0F26BE40B543CF1000F12006A2
:1003E00046F82750CE1000F1200555F8265045EA72
:1003F0000304CE1000F1200545F82640F0BD00BFF3
:10040000FEE700BFFEE7704708B54FF4A06000F0BC
:100410004BF826208DF8000001208DF801008DF8A2
:1004200002008DF80300684600F002F808BD0000E5
:1004300070B5002100230F22C4781CB3174C246828
:1004400004F4E064C4F5E064C4F30721C1F10404DA
:10045000E3B20A4144789C40E1B2847814402143DD
:100460000C07210E0E4C05786155047804F01F0529
:100470000124AC4005786D11AD0005F1E025C5F80B
:10048000004109E0047804F01F050124AC40054D4B
:100490000678761145F8264070BD00000CED00E0AE
:1004A00000E400E080E100E002490143024A1160FB
:1004B000704700000000FA050CED00E070470000F6
:1004C00029B1064A12680243044B1A6004E0034A49
:1004D00012688243014B1A607047000030380240B6
:1004E00029B1064A12680243044B1A6004E0034A29
:1004F00012688243014B1A60704700004038024086
:1005000029B1064A12680243044B1A6004E0034A08
:1005100012688243014B1A60704700004438024061
:10052000F0B5002100220024022500260223324FCC
:100530003F6807F00C0121B1042905D0082937D103
:1005400005E02E4F076036E02D4F076033E02A4F5D
:100550003F1F3F68C7F38056274F3F1F3F6807F094
:100560003F036EB1264FB7FBF3F7DFF88CC0ACF159
:10057000040CDCF800C0CCF3881C07FB0CF40CE086
:100580001E4FB7FBF3F7DFF870C0ACF1040CDCF8DA
:1005900000C0CCF3881C07FB0CF4174F3F1F3F68CB
:1005A000C7F301477F1C7D00B4FBF5F7076002E04D
:1005B000124F076000BF00BF0F4F3F6807F0F00108
:1005C0000909104F7A5C0768D74047600A4F3F68B7
:1005D00007F4E051890A0B4F7A5C4768D74087607F
:1005E000054F3F6807F46041490B064F7A5C476846
:1005F000D740C760F0BD0000083802400024F40076
:1006000040787D0100000020704700000CB50020FC
:10061000019000903448006840F48030324908600E
:1006200000BF3148006800F4003000900198401C81
:100630000190009818B90198B0F5A04FF1D12A485F
:10064000006800F4003010B10120009001E00020AB
:1006500000900098012846D123484030006840F0BF
:1006600080502149403108602048006840F44040F3
:100670001E4908601C48083000681B4908310860A2
:100680000846006840F4004008600846006840F4EE
:10069000A05008601648091F0860081F006840F055
:1006A0008070091F086000BF0F48006800F00070EC
:1006B0000028F9D040F205700E4908600A48083059
:1006C000006820F003000849083108600846006807
:1006D00040F00200086000BF03480830006800F0E6
:1006E0000C000828F8D10CBD003802400070004012
:1006F00019544007003C02407047000010B51548EF
:10070000006840F47000134908601348006840F026
:1007100001001149086000200F49083108600E48A7
:1007200000680E4908400C4908600D48091D086022
:10073000081F006820F48020091F08600020064977
:100740000C310860FFF762FF4FF00060014980390B
:10075000086010BD88ED00E000380240FFFFF6FEA3
:100760001030002410B52021104800F033F8D8B123
:100770000E4800F0CBF80E490E4A127888540D4806
:100780000078401C0B49087008460078401E084954
:10079000085C0A2808D10020064A127888540549C6
:1007A000087001200449087010BD0000004400409A
:1007B00014000020110000201000002021B18289C7
:1007C00042F40052828104E082894DF6FF731A40A0
:1007D0008281704702460020B1F5007F00D100BF42
:1007E00013880B400BB1012000E000207047F0B5EA
:1007F0000346002400260025002040F66A17B9426F
:1008000000D100BF1846C1F3421401F01F060127B2
:1008100007FA06F5012C01D10C3004E0022C01D1BD
:10082000103000E014301AB107682F43076002E06F
:100830000768AF430760F0BD2DE9FF4705460E4648
:100840000024A14600BFA046B08900B100BF2C8A99
:1008500024F44054F08804432C82AC8941F20C60AB
:100860008443B08831890843718908430443AC81CB
:10087000AC8A24F44074B0890443AC826846FFF724
:100880004FFE2048854202D01F48854202D1DDF844
:100890000C9001E0DDF80890A88900F4004040B118
:1008A00009EBC90000EB091031684900B0FBF1F712
:1008B00007E009EBC90000EB091031688900B0FBC3
:1008C000F1F76420B7FBF0F004012009642101FB7B
:1008D0001078A88900F4004040B1322000EBC80035
:1008E000B0FBF1F000F00700044308E0322000EB19
:1008F00008106421B0FBF1F000F00F0004432C81DC
:10090000BDE8FF87001001400014014001468888BF
:10091000C0F308007047C1F308028280704700BF2F
:10092000FEE770B504460D4629462046FFF7F3FF63
:1009300000BF80212046FFF74DFF0028F9D070BD91
:1009400070B506460C46002500BF615D3046FFF7D6
:10095000E8FF6D1C605D0028F7D100BF40213046E4
:10096000FFF738FF0028F9D070BD02E008C8121F59
:1009700008C1002AFAD170477047002001E001C188
:10098000121F002AFBD170470024FFF72FFCFFF74E
:1009900077FC0EA10F48FFF7D3FF16E00E48007852
:1009A000012812D106E00D48015D0D48FFF7B9FF9F
:1009B000601CC4B20948005D0028F4D10024064937
:1009C000087002A10348FFF7BBFFE7E741542B542F
:1009D0000D0A000000440040100000201400002018
:1009E00000100140040A000800000020140000006C
:1009F0006A090008180A0008140000201404000006
:100A00007A09000800000000010203040102030447
:080A10000607080900000000C0
:040000050800018965
:00000001FF
