:020000040800F2
:10000000980400209D010008F5090008A1080008D7
:10001000A508000825070008A71400080000000034
:100020000000000000000000000000003D0E00087D
:100030002907000800000000AD0A00082D0F000885
:10004000B7010008B7010008B7010008B7010008B0
:10005000B7010008B7010008B7010008B7010008A0
:10006000B7010008B7010008B7010008B701000890
:10007000B7010008B7010008B7010008B701000880
:10008000B7010008B7010008B7010008B701000870
:10009000B7010008B7010008B7010008B701000860
:1000A000B7010008B7010008B7010008B701000850
:1000B000B7010008B7010008990F0008B701000850
:1000C000B7010008B7010008B7010008B701000830
:1000D000B7010008B70100088D110008B70100083A
:1000E000B7010008B7010008B7010008B701000810
:1000F000B7010008B7010008B7010008B701000800
:10010000B7010008B7010008B7010008B7010008EF
:10011000B7010008B7010008B7010008B90F0008CF
:10012000B7010008B7010008B7010008B7010008CF
:10013000B7010008B7010008B7010008B7010008BF
:10014000B7010008B7010008B7010008B7010008AF
:10015000B7010008B7010008B7010008B70100089F
:10016000B7010008B7010008B7010008B70100088F
:10017000B7010008B7010008B7010008B70100087F
:10018000B7010008B7010008DFF80CD000F02AFA28
:1001900000480047A51D0008980400200648804735
:1001A00006480047FEE7FEE7FEE7FEE7FEE7FEE75C
:1001B000FEE7FEE7FEE7FEE7310F000889010008D1
:1001C00000F0004230F000400AD0C10D01F560712E
:1001D000C0F3160042EA0151C208400711437047BC
:1001E00000200146704730B50B4601460020202212
:1001F000012409E021FA02F59D4205D303FA02F534
:10020000491B04FA02F52844151EA2F10102F1DC93
:1002100030BD2DE9F05F0546002092469B4688469A
:100220000646814640241BE0284641464746224672
:1002300000F0F9F953465A46C01A914110D31146BD
:100240001846224600F0E0F92D1A67EB01084F46E8
:1002500022460120002100F0D7F917EB00094E419A
:10026000201EA4F10104DFDC484631462A464346FD
:10027000BDE8F09F2DE9FE4F804681EA0300C00FE4
:100280000C46009021F0004123F00045B8EB02003D
:10029000A94105D24046214690461C460B460246DF
:1002A00023F00040104347D0270DC7F30A00C3F3E3
:1002B0000A510290401A019040286BDAC3F31300F0
:1002C00040F4801B0098924620B10023D2EB030A31
:1002D00063EB0B0B01985946C0F14002504600F009
:1002E00093F906460D4650465946019A00F0ABF97F
:1002F00010EB08006141002487EA115284EAE77399
:100300001A4340D0009A62B3019A012A4FEA075279
:1003100015DC001B61EB02014FF0004202EA0752BC
:10032000CDE90042001C41F5801132462B4600F019
:10033000ABF903B0BDE8F08F40462146F9E7001B5A
:1003400061EB0201001C41F5801300185B4120188D
:10035000A2F5001747EB030140EAD570B6196D41CD
:1003600011E06D084FEA360645EAC0754FEA0752BC
:10037000001B61EB0201001C41F5801149084FEAA6
:1003800030000019514132462B4603B0BDE8F04F12
:1003900000F06BB90098012240000023D0EB02026C
:1003A00063EBE073009821464FEAE074B8EB00007D
:1003B00061EB0401E9E783F000435BE781F0004172
:1003C00058E72DE9FE4F81EA030404F0004421F0D0
:1003D000004100944FF0000B23F0004350EA010469
:1003E0005ED052EA03045BD0C3F30A54C1F30A554A
:1003F0002C44A4F2F3340194A0FB0254C1F3130182
:1004000041F48011C3F3130343F4801301FB02444E
:1004100000FB034E840A970A44EA815447EA835753
:10042000A4FB076802958D0A05FB07854FEA932C0C
:1004300004FB0C542705029D4FEA065847EA16377D
:10044000B5EB08056EEB070C870E920E47EA811795
:1004500042EA8312A7FB0201B6EB0B0164EB000436
:100460002B0D43EA0C335E1844EB1C50DA46514620
:10047000E7FB0201C5F313044FEA0B3343EA1453BD
:100480004FEA0432019C43EA0603A4F10C040294EF
:10049000009CCDE900B400F0F7F803B0BDE8F08FA0
:1004A00000200146F9E72DE9F04D81EA030404F04C
:1004B000004B21F0004514464FF0000A23F00041A4
:1004C00050EA050220D054EA01021DD0C5F30A57B4
:1004D0000246C5F31303C1F31300C1F30A5640F4F7
:1004E000801543F48013A7EB0608101BD64608F2CC
:1004F000FD3873EB050002D308F1010801E0921802
:100500005B41B8F1000F03DA00200146BDE8F08D31
:1005100000204FF48011064684460EE0171B73EB53
:10052000050705D3121B63EB050306434CEA010CD8
:1005300049084FEA300092185B4150EA0107EDD1BB
:1005400052EA030012D082EA040083EA050108435C
:1005500005D0101BAB4106D20122002306E0002289
:100560004FF0004302E06FF0010253101AEB060057
:100570004CEB085110EB0A0041EB0B01BDE8F04DCC
:1005800000F073B8C1F30A52C1F3130140F2FF3314
:1005900041F480119A4202DA00200146704740F28D
:1005A00033439A42A2F2334202DC524200F03BB89B
:1005B00000F02AB830B5041E71F1000404DB4FF0DE
:1005C0000044404264EB0101141E73F1000405DB9A
:1005D0001C464FF00043524263EB0403994208BFAC
:1005E000904230BD064C074D06E0E06840F0010344
:1005F00094E8070098471034AC42F6D3FFF7C8FDE3
:10060000C81D0008E81D0008202A04DB203A00FA73
:1006100002F1002070479140C2F1200320FA03F359
:10062000194390407047202A04DB203A21FA02F057
:100630000021704721FA02F3D040C2F1200291401C
:10064000084319467047202A06DBCB17203A41FAA7
:1006500002F043EAE07306E041FA02F3D040C2F14F
:100660002002914008431946704710B5141E73F1DB
:10067000000408DA401C41F1000192185B411A4362
:1006800001D120F0010010BD2DE9F04D92469B46AE
:1006900011B1B1FA81F202E0B0FA80F22032904654
:1006A000FFF7B2FF04460F4640EA0A0041EA0B0199
:1006B00053465A46084313D0114653EA010019D055
:1006C000C8F140025046FFF7AEFF05460E465046C1
:1006D00059464246FFF798FF084305D0012004E041
:1006E00020463946BDE8F08D0020054346EAE07615
:1006F0002C4337430A986305E40AA0EB0800002264
:10070000FD0A44EA47540A3002D500200146E9E7D1
:10071000010510196941DDE9084500196941BDE885
:10072000F04DA2E700BFFEE77047000000B587B0BC
:100730000121084600F0BCF900208DF81A000120C4
:100740008DF81B0002208DF819008DF818000002AA
:10075000059005A9184800F033F84FF48060059023
:1007600005A9154800F02CF807220A21124800F0CC
:100770006FF807220921104800F06AF801211020C3
:1007800000F0C6F94FF4165001900020ADF80800B3
:10079000ADF80A00ADF80C00ADF810000C20ADF873
:1007A0000E0001A9054800F00BFE0121034800F0EE
:1007B00026FD07B000BD000000000240001001400F
:1007C000F0B50A4600210023002400BF3DE00125CA
:1007D00005FA01F3156805EA03049C4234D1056863
:1007E0004F000326BE40B543056015794E00B54065
:1007F0000668354305601579012D02D01579022D63
:1008000016D185684F000326BE40B54385605579F3
:100810004E00B540866835438560456801268E40A8
:10082000B5434560456896798E40B6B2354345601C
:10083000C5684F000326BE40B543C560D5794E005C
:10084000B540C6683543C560491C1029BFD3F0BD0B
:10085000F0B5002300244D07ED0E02FA05F3CE108B
:1008600000F1200555F826504E07F70E0F26BE4022
:10087000B543CF1000F1200646F82750CE1000F106
:10088000200555F8265045EA0304CE1000F1200556
:1008900045F82640F0BD0A048261704781617047C7
:1008A00000BFFEE700BFFEE710B52DED028B82B062
:1008B0000020019011480078E0B100201049088024
:1008C0001048007D00060F49098B40EA01400D49A0
:1008D000C96840EA01200B49096908430190019C5D
:1008E0002046FFF76DFC41EC180B53EC182B06A0CB
:1008F00000F0DCFD02B0BDEC028B10BD2200002038
:1009000024000020300000204F585F56616C756550
:10091000203D20252E3266206D672F4C0D0A0000E9
:1009200010B52DED028B82B00020019011480078A7
:10093000E0B10020104908801048007D00060F49F2
:10094000098B40EA01400D49C96840EA01200B4982
:10095000096908430190019C2046FFF731FC41ECF6
:10096000180B53EC182B06A000F0A0FD02B0BDEC54
:10097000028B10BD22000020240000203000002047
:1009800050485F56616C7565203D20252E32660DFE
:100990000A00000010B514480078012802D002288F
:1009A00020D10FE01148007801280AD100F0E2F9C7
:1009B00000200E49087002200B49087001200C49E4
:1009C00008700FE00A48007801280AD1022000F0E0
:1009D000D1F9002006490870012003490870034935
:1009E000087000BF00BF10BD290000202A000020B1
:1009F0002B000020704708B54FF4806000F04CF8E1
:100A000026208DF8000003208DF801008DF80200EB
:100A100001208DF80300684600F002F808BD0000D0
:100A200070B5002100230F22C4781CB3174C246832
:100A300004F4E064C4F5E064C4F30721C1F10404E4
:100A4000E3B20A4144789C40E1B2847814402143E7
:100A50000C07210E0E4C05786155047804F01F0533
:100A60000124AC4005786D11AD0005F1E025C5F815
:100A7000004109E0047804F01F050124AC40054D55
:100A80000678761145F8264070BD00000CED00E0B8
:100A900000E400E080E100E002490143024A116005
:100AA000704700000000FA050CED00E07047000000
:100AB00029B1064A12680243044B1A6004E0034A53
:100AC00012688243014B1A607047000030380240C0
:100AD00029B1064A12680243044B1A6004E0034A33
:100AE00012688243014B1A60704700004038024090
:100AF00029B1064A12680243044B1A6004E0034A13
:100B000012688243014B1A6070470000203802408F
:100B100029B1064A12680243044B1A6004E0034AF2
:100B200012688243014B1A6070470000443802404B
:100B300029B1064A12680243044B1A6004E0034AD2
:100B400012688243014B1A6070470000243802404B
:100B5000F0B5002100220024022500260223324F96
:100B60003F6807F00C0121B1042905D0082937D1CD
:100B700005E02E4F076036E02D4F076033E02A4F27
:100B80003F1F3F68C7F38056274F3F1F3F6807F05E
:100B90003F036EB1264FB7FBF3F7DFF88CC0ACF123
:100BA000040CDCF800C0CCF3881C07FB0CF40CE050
:100BB0001E4FB7FBF3F7DFF870C0ACF1040CDCF8A4
:100BC00000C0CCF3881C07FB0CF4174F3F1F3F6895
:100BD000C7F301477F1C7D00B4FBF5F7076002E017
:100BE000124F076000BF00BF0F4F3F6807F0F001D2
:100BF0000909104F7A5C0768D74047600A4F3F6881
:100C000007F4E051890A0B4F7A5C4768D740876048
:100C1000054F3F6807F46041490B064F7A5C47680F
:100C2000D740C760F0BD0000083802400024F4003F
:100C300040787D010000002000B587B0012105202B
:100C4000FFF736FF01214804FFF742FF0722032187
:100C50003048FFF7FDFD072202212E48FFF7F8FD7F
:100C600000208DF81A008DF81B0002208DF8180066
:100C70000420059002208DF8190005A92548FFF7EA
:100C80009FFD02208DF818000820059005A9214835
:100C9000FFF796FD00208DF81A008DF81B0001204B
:100CA0008DF81800059002208DF8190005A91A4842
:100CB000FFF786FD194800F0AFFA4FF41650019087
:100CC0000020ADF80800ADF80A00ADF80C00ADF852
:100CD00010000C20ADF80E0001A9104800F070FBC8
:100CE00040F225510D4800F07BFA012240F22551D7
:100CF0000A4800F040FBFFF77EFE0121074800F0A4
:100D00007EFA01210448FFF7C6FD00F00DFA07B096
:100D100000BD000000000240000802400044004006
:100D200070B504460D4601211048FFF7B7FD0BE0F2
:100D300000BF80210E4800F0E7FA0028F9D014F82F
:100D4000011B0B4800F0ABFB281EA5F10101CDB241
:100D5000EED100BF4021064800F0D6FA0028F9D0B5
:100D600001210248FFF797FD70BD00000008024016
:100D70000044004010B50446012C02D0022C08D1DA
:100D800003E0054800F00CF803E0044800F008F820
:100D900000BF00BF10BD0000120000201A0000209C
:100DA00010B5044620780A49087060784870A07829
:100DB0008870E078C8702079087160794871A079EE
:100DC0008871E079C87108210148FFF7A9FF10BDBB
:100DD0008000002010B514480078012819D113486C
:100DE000006813490978884213D1104840681049B7
:100DF000497888420DD10D480068012802D00228A8
:100E000006D102E0FFF750FD02E0FFF789FD00BFC9
:100E100000BF0020044908700649088001210648E7
:100E2000FFF73CFD10BD0000220000203000002034
:100E300080000020240000200008024070470000CD
:100E40000CB50020019000903448006840F48030D8
:100E50003249086000BF3148006800F4003000905B
:100E60000198401C0190009818B90198B0F5A04F66
:100E7000F1D12A48006800F4003010B10120009040
:100E800001E0002000900098012846D1234840301E
:100E9000006840F0805021494031086020480068D7
:100EA00040F440401E4908601C48083000681B4957
:100EB000083108600846006840F4004008600846B1
:100EC000006840F4A05008601648091F0860081F19
:100ED000006840F08070091F086000BF0F4800687C
:100EE00000F000700028F9D040F205700E4908604B
:100EF0000A480830006820F00300084908310860FB
:100F00000846006840F00200086000BF034808304F
:100F1000006800F00C000828F8D10CBD0038024031
:100F20000070004019544007003C02407047000028
:100F300010B51548006840F4700013490860134864
:100F4000006840F001001149086000200F49083195
:100F500008600E4800680E4908400C4908600D48BA
:100F6000091D0860081F006820F48020091F086020
:100F7000002006490C310860FFF762FF4FF0006067
:100F800001498039086010BD88ED00E0003802405A
:100F9000FFFFF6FE1030002410B50121054800F0D7
:100FA00036F8012805D10121024800F021F8FFF7A9
:100FB000F1FC10BD0008004010B50121094800F007
:100FC00026F870B10121074800F012F80021054809
:100FD00000F011F801210448FFF760FC01200349EB
:100FE000087010BD001400400008024022000020DC
:100FF000CA430282704721B1028842F00102028096
:1010000004E002884FF6FE731A400280704730B544
:101010000246002000230024158A05EA0103958971
:1010200005EA010413B10CB1012000E0002030BD3D
:101030001AB183890B43838102E083898B438381C7
:10104000704741627047000000220288184B9842A6
:101050000ED0184B98420BD0B0F1804F08D0164BF1
:10106000984205D0154B984202D0154B984204D1B6
:101070004FF68F731A404B881A43124B984207D091
:10108000114B984204D04FF6FF431A400B891A4384
:1010900002804B68C3620B880385054B984202D0DF
:1010A000044B984201D18B7A0386012383827047D7
:1010B000000001400004014000040040000800401E
:1010C000000C004000100040001400401FB5044612
:1010D00001210420FFF7FCFC029441F61F40ADF80B
:1010E00004000020ADF80C00ADF8060001A90D4881
:1010F000FFF7AAFF012241210A48FFF799FF1E20AE
:101100008DF8000003208DF801008DF80200012009
:101110008DF803006846FFF783FC01210148FFF7C3
:101120006AFF1FBD000800401FB501212020FFF706
:10113000CFFC0020ADF80C00ADF806001148007897
:1011400000EB80004000029041F61F40ADF8040023
:1011500001A90D48FFF778FF012211460A48FFF761
:1011600067FF37208DF8000002208DF80100032072
:101170008DF8020001208DF803006846FFF750FC4F
:101180001FBD0000100000200014004010B540F208
:1011900025510F4800F0C5F8C0B10D4800F07AF9AC
:1011A0000C490D4A128841F822000B480088401C67
:1011B0000949088001210948FFF71AFF0021074863
:1011C000FFF73FFF01210548FFF715FF10BD0000A5
:1011D00000440040300000202400002000140040A3
:1011E00010B50022002340F66A14A14200D100BFCE
:1011F0000A1201249440A3B2DC43048010BD21B143
:10120000828942F40052828104E082894DF6FF73A4
:101210001A4082817047000010B50446324884426B
:1012200008D101211020FFF783FC00211020FFF7D7
:101230007FFC57E02D48844209D101214804FFF783
:1012400057FC00214FF40030FFF752FC4AE02848D9
:10125000844209D101218804FFF74AFC00214FF4A0
:101260008020FFF745FC3DE02248844209D101215E
:10127000C804FFF73DFC00214FF40020FFF738FCC5
:1012800030E01D48844209D101210805FFF730FCF8
:1012900000214FF48010FFF72BFC23E01748844215
:1012A00008D101212020FFF743FC00212020FFF777
:1012B0003FFC17E01248844209D101218807FFF75B
:1012C00017FC00214FF08040FFF712FC0AE00D48A8
:1012D000844207D101214005FFF70AFC0021600587
:1012E000FFF706FC10BD0000001001400044004064
:1012F00000480040004C00400050004000140140F5
:1013000000780040007C004002460020B1F5007FDC
:1013100000D100BF13880B400BB1012000E000207A
:10132000704770B50246002400230025002040F6D7
:101330006A16B14200D100BFC1F3421501F01F038C
:10134000012606FA03F3012D02D19689334006E007
:10135000022D02D1168A334001E0968A33400C12E6
:10136000012606FA04F41688344013B10CB10120AA
:1013700000E0002070BDF0B50346002400260025E3
:10138000002040F66A17B94200D100BF1846C1F3E9
:10139000421401F01F06012707FA06F5012C01D1BE
:1013A0000C3004E0022C01D1103000E014301AB1EE
:1013B00007682F43076002E00768AF430760F0BD8E
:1013C0002DE9FF4705460E460024A14600BFA04672
:1013D000B08900B100BF2C8A24F44054F088044343
:1013E0002C82AC8941F20C608443B0883189084377
:1013F000718908430443AC81AC8A24F44074B089F9
:101400000443AC826846FFF7A3FB2048854202D024
:101410001F48854202D1DDF80C9001E0DDF808900C
:10142000A88900F4004040B109EBC90000EB0910A5
:1014300031684900B0FBF1F707E009EBC90000EBA8
:10144000091031688900B0FBF1F76420B7FBF0F0B8
:1014500004012009642101FB1078A88900F40040F0
:1014600040B1322000EBC800B0FBF1F000F0070003
:10147000044308E0322000EB08106421B0FBF1F0D7
:1014800000F00F0004432C81BDE8FF8700100140ED
:101490000014014001468888C0F308007047C1F37A
:1014A00008028280704700BFFEE700000FB4054BC2
:1014B00010B503A9044A029800F0CAF810BC5DF800
:1014C00014FB0000811D00082C00002002E008C869
:1014D000121F08C1002AFAD170477047002001E0AE
:1014E00001C1121F002AFBD1704700002DE9FF5FE8
:1014F000DDE90220010DDDF838B0024318D044F6D2
:101500001050A1F2FF3141430D140F98012820D053
:10151000A5EB0B00401C5FEA000A4FF00004474EA9
:10152000DFF81C91A046504616D5CAF1000728E006
:101530000F98012443A2012808D0002100980F9B96
:10154000C0E90021C0E90243BDE8FF9F6FEA0B013B
:10155000F4E7CBF10000DEE7074612E0F80707D01A
:101560002246334640464946FEF72BFF80468946D1
:101570002246334610461946FEF723FF04460E4620
:101580007F10002FEAD1DDE90201BAF1000F4246D7
:101590004B4602DAFEF715FF01E0FEF784FF044632
:1015A0000E460022284BFFF705F803D84FF0FF3016
:1015B000014607E00022254B20463146FEF75AFE41
:1015C000FEF7E0FF102409E0002C0ADB0A220023CA
:1015D000FEF71FFE019B30321A55641E50EA0102CD
:1015E000F2D1641C019AC4F1110314440F9A012A28
:1015F00003D0012208430DD10AE0084304D00020A3
:101600004FF0110B0F9080E7A3EB0B056D1E0DE063
:101610005B4504DD4FF0000205F1010504E003DA4B
:101620004FF00002A5F10105002AECD000980F99B7
:10163000C0E90231C0E9004586E70000000024400F
:101640000000F03F300000000000F0430000E03FE9
:101650002DE9FF4F95B09B468946064600250FE2CF
:10166000252877D100242746F84A0121059400E077
:10167000044316F8013F203B01FA03F01042F7D172
:1016800030782A2811D06FF02F033078A0F1300283
:10169000092A16D8059A44F0020402EB820203EBF1
:1016A00042021044761C0590EFE759F8042B05928E
:1016B000002A03DA504244F40054059044F0020436
:1016C000761C30782E2816D116F8010F44F0040449
:1016D0002A280DD06FF02F023078A0F13003092BAB
:1016E00009D807EB870302EB4303C718761CF3E71F
:1016F00059F8047B761C30786C280FD006DC4C2817
:1017000017D068280DD06A2814D104E0742810D0AE
:101710007A280FD10DE044F400140AE044F4801458
:1017200001E044F440147278824202D104F580143E
:10173000761C761C307866280BD013DC582877D0BE
:1017400009DC002875D04528F6D04628F4D0472873
:101750001AD19DE118E0632835D0642879D0652836
:1017600012D195E1702873D008DC6728F1D0692880
:101770006FD06E280DD06F2806D1B5E073282CD01D
:10178000752875D0782874D05A46179990476D1CE3
:1017900075E1C4F30250022809D003280DD0D9F80E
:1017A000001004280DD00D6009F1040967E1D9F893
:1017B0000010EA17C1E90052F6E7D9F800100D80D1
:1017C000F2E70D70F0E719F8041B8DF80010002007
:1017D0008DF80100EA46012003E059F804AB4FF010
:1017E000FF3061074FF0000102D40DE008F1010164
:1017F0008846B9420FDA8045F8DB1AF8081000294C
:10180000F4D108E008F1010188468142FADB1AF8B8
:1018100008100029F6D105985B46A0EB0807214681
:101820003846179A00F094FA284400EB080507E0C0
:101830004DE029E10DE01AF8010B5A46179990473F
:10184000B8F10108F7D25B4621463846179A13E1F2
:1018500042E00A220092C4F302524FF0000A022A28
:1018600008D059F804CB032A4FEAEC710AD00DE0F6
:1018700029E02AE009F1070121F00702F2E802C19C
:10188000914609E00FFA8CFC4FEAEC71042A03D16F
:101890004FFA8CFC4FEAEC71002907DA0A46002166
:1018A000DCF1000C61EB02012D2202E0220504D5DF
:1018B0002B228DF80420012203E0E20701D0202230
:1018C000F7E7904659E00A2102E010220DE01021CE
:1018D0004FF0000A00910BE010224FF0000A44F094
:1018E00004040827009203E008224FF0000A009247
:1018F000C4F30252022A05D059F804CB0021032A6E
:1019000008D009E009F1070121F00702F2E802C15D
:10191000914605E01FFA8CFC042A01D10CF0FF0C63
:101920004FF00008220728D5702806D0009B83F0CE
:10193000100353EA0A0305D00EE040228DF804207C
:10194000012208E05CEA010206D030228DF8042072
:101950008DF8050002229046009B83F0080353EAAD
:101960000A030AD15CEA010201D1620705D53022DF
:101970008DF804204FF001087F1E582804D034A0B1
:1019800003900EA802900DE036A0F9E7534660469A
:10199000009AFEF73EFC84460398825C0298401E43
:1019A000029002705CEA0100F0D1029806A9081AC0
:1019B00000F1200A600702D524F4803400E00127FA
:1019C000574502DDA7EB0A0000E0002000EB0A010A
:1019D000009005984144401A0590E00306D45B4608
:1019E0002146179A059800F0B3F90544002706E050
:1019F00001A85A46C05D179990476D1C7F1C47454A
:101A0000F6DBE0030CD55B462146179A059800F0FB
:101A10009FF9054404E030205A46179990476D1C01
:101A20000099481E00900029F5DC08E00298029910
:101A30005A460078491C0291179990476D1CBAF1DB
:101A40000001AAF1010AF1DC65E1000009280100AA
:101A50003031323334353637383961626364656624
:101A600000000000303132333435363738394142E6
:101A7000434445460000000000F058F90544761C38
:101A8000307800287FF4ECAD19B02846BDE8F08F1F
:101A9000620700D4062709F1070222F0070CFCE8D0
:101AA0000223E14603F000485FEA080C02D00FF27F
:101AB000702C0DE05FEA045C02D50FF2682C07E0A1
:101AC0005FEAC47C02D00FF2602C01E0AFF2700C30
:101AD0004FF0FF3823F00043CDF850C065280CD0FC
:101AE00006DC452809D046281DD047283DD13DE0D9
:101AF000662818D067287ED138E00021112F01DB3D
:101B0000112000E0781CCDE9000106A90EA8FFF71E
:101B1000EDFCDDE90F010E9A03910021009207F11F
:101B2000010A04914DE04FF000400097CDE901100B
:101B300006A90EA8FFF7DAFCDDE90F0203920E9B5F
:101B400011990022DDF80CA00093049211B9791CC0
:101B500000EB010AB7EB0A0004D4C0F1FF3007F133
:101B6000010A0490AAEB0700019044E0012F00DA7B
:101B700001270021112F01DD112000E03846CDE9B9
:101B8000000106A90EA8FFF7B1FCDDE90F010E9ACE
:101B90000391002104910092BA4621070CD40399C5
:101BA000514500DA8A46BAF1010F05DD009AAAF123
:101BB0000101515C302908D0B84202DA10F1040F5B
:101BC00006DA0121CDE9011015E0AAF10101E9E7EA
:101BD000002805DC049901440491AAEB000102E00D
:101BE000411C514500DD8A460499401A401C019071
:101BF0004FF000400290200704D40198504501DBCB
:101C0000CDF8048000208DF84F0002980DF14F07A9
:101C1000B0F1004F25D02B200E9002984FF0020813
:101C200000280CDA404202902D200E9007E00A2195
:101C30000298FEF7D8FA3031029007F8011DB8F18A
:101C40000001A8F10108F2DC02980028EFD1791E0A
:101C50000E980870307800F0200040F0450007F83A
:101C6000020D12A8C01B00F107081498007800B1FB
:101C7000012000EB0A01019801EBE0710598414455
:101C8000401A401E0590E00306D45B462146179A91
:101C9000059800F05DF805441498007818B15A468C
:101CA000179990476D1CE00324D55B462146179A8F
:101CB000059800F04DF805441CE00498002807DB67
:101CC000DDE90301884203DD0098405C179901E0DB
:101CD000179930205A469047049805F10105401C99
:101CE00004900198401E019004D12E205A46179965
:101CF00090476D1CBAF10001AAF1010ADDDC05E094
:101D000017F8010B5A46179990476D1CB8F100015E
:101D1000A8F10108F4DC5B462146179A0598ABE66A
:101D20002D0000002B000000200000002DE9F041F4
:101D3000044600251E461746880404D405E03946AB
:101D40002020B0476D1C641EF9D52846BDE8F081FF
:101D50002DE9F041044600251E469046C80301D5F2
:101D6000302700E02027880404D505E041463846A6
:101D7000B0476D1C641EF9D52846BDE8F08100000F
:101D800070B504460D46E1B20548FFF788FB00BF79
:101D900080210348FFF7B8FA0028F9D0204670BD2B
:101DA00000100140FEF7C2FCFEF746FF41F288300A
:101DB000FFF78CF905E003480078012801D1FFF70F
:101DC00009F8F8E722000020E81D000800000020C4
:101DD00030000000CC140008181E0008300000205D
:101DE00068040000DC140008000000000102030485
:101DF00001020304060708090400010300010002B0
:101E000095CB02030001000295F8000000000000DD
:081E10000001010000000000C8
:040000050800018965
:00000001FF
