:020000040800F2
:10000000180400209D01000831030008BF02000809
:100010002D030008E5010008450500080000000068
:100020000000000000000000000000005503000870
:10003000E90100080000000033030008450400083F
:10004000B7010008B7010008B7010008B7010008B0
:10005000B7010008B7010008B7010008B7010008A0
:10006000B7010008B7010008B7010008B701000890
:10007000B7010008B7010008B7010008B701000880
:10008000B7010008B7010008B7010008B701000870
:10009000B7010008B7010008B7010008B701000860
:1000A000B7010008B7010008B7010008B701000850
:1000B000B7010008B7010008B7010008B701000840
:1000C000B7010008B7010008B7010008B701000830
:1000D000B7010008B7010008B7010008B701000820
:1000E000B7010008B7010008B7010008B701000810
:1000F000B7010008B7010008B7010008B701000800
:10010000B7010008B7010008B7010008B7010008EF
:10011000B7010008B7010008B7010008B7010008DF
:10012000B7010008B7010008B7010008B7010008CF
:10013000B7010008B7010008B7010008B7010008BF
:10014000B7010008B7010008B7010008B7010008AF
:10015000B7010008B7010008B7010008B70100089F
:10016000B7010008B7010008B7010008B70100088F
:10017000B7010008B7010008B7010008B70100087F
:10018000B7010008B7010008DFF80CD000F018F83C
:100190000048004769050008180400200648804709
:1001A00006480047FEE7FEE7FEE7FEE7FEE7FEE75C
:1001B000FEE7FEE7FEE7FEE7C50400088901000848
:1001C000064C074D06E0E06840F0010394E80700A4
:1001D00098471034AC42F6D3FFF7DAFF98050008D1
:1001E000B805000800BFFEE77047000001B50C49E4
:1001F000009808604FF0E020006940F001004FF0E7
:10020000E021086100BF064800680028FBD14FF0DC
:10021000E020006920F001004FF0E021086108BDF6
:1002200014000020F0B50A4600210023002400BF7E
:100230003DE0012505FA01F3156805EA03049C4237
:1002400034D105684F000326BE40B54305601579DB
:100250004E00B5400668354305601579012D02D082
:100260001579022D16D185684F000326BE40B5438F
:10027000856055794E00B540866835438560456890
:1002800001268E40B5434560456896798E40B6B2EA
:1002900035434560C5684F000326BE40B543C56081
:1002A000D5794E00B540C6683543C560491C102954
:1002B000BFD3F0BD0A04826170478161704700BFFF
:1002C000FEE700001CB50121202000F033F840209B
:1002D000009001208DF8040000208DF806008DF8B4
:1002E000050001208DF8070069460F48FFF79AFFC7
:1002F0008020009069460C48FFF794FF4FF480700F
:10030000009069460848FFF78DFF40210648FFF737
:10031000D4FF80210448FFF7D0FF4FF480710248DA
:10032000FFF7CBFF1CBD00000014024000BFFEE73A
:100330007047704729B1064A12680243044B1A609D
:1003400004E0034A12688243014B1A6070470000C0
:1003500030380240704700000CB50020019000903A
:100360003448006840F480303249086000BF3148AA
:10037000006800F4003000900198401C0190009843
:1003800018B90198B0F5A04FF1D12A48006800F4DF
:10039000003010B10120009001E000200090009892
:1003A000012846D123484030006840F08050214960
:1003B000403108602048006840F440401E49086011
:1003C0001C48083000681B4908310860084600686E
:1003D00040F4004008600846006840F4A0500860FF
:1003E0001648091F0860081F006840F08070091F48
:1003F000086000BF0F48006800F000700028F9D0C6
:1004000040F205700E4908600A480830006820F084
:1004100003000849083108600846006840F00200FF
:10042000086000BF03480830006800F00C0008288E
:10043000F8D10CBD0038024000700040195440074C
:10044000003C024010B500F071F810BD30B51A48FC
:1004500000684FF47A72B0FBF2F1481EB0F1807F71
:1004600001D301201BE0481E4FF0E02250615017DD
:100470000F22002807DA13071D0E104B00F00F049F
:10048000241F1D5503E013071C0E0D4B1C5400BF09
:1004900000204FF0E022906107201061002008B199
:1004A00000BFFEE74FF0E020006920F001004FF0B0
:1004B000E021086130BD00000000002018ED00E0E0
:1004C00000E400E010B51548006840F470001349DE
:1004D00008601348006840F00100114908600020DE
:1004E0000F49083108600E4800680E4908400C4961
:1004F00008600D48091D0860081F006820F480206E
:10050000091F0860002006490C310860FFF724FF2E
:100510004FF0006001498039086010BD88ED00E0AF
:1005200000380240FFFFF6FE103000240448006847
:1005300020B103480068401E014908607047000070
:100540001400002000BFFEE702E008C8121F08C127
:10055000002AFAD170477047002001E001C1121F44
:10056000002AFBD170470000FFF7ACFEFFF76EFFDB
:100570000FE040210748FFF79DFE4FF47A70FFF728
:1005800035FE40210348FFF798FE4FF47A70FFF7DD
:100590002DFEEEE700140240B80500080000002020
:1005A0001800000048050008D005000818000020C9
:1005B0000004000058050008007A030A000000004B
:1005C0000000000001020304060708090000000003
:040000050800018965
:00000001FF
