:020000040800F2
:10000000400400209D010008DD0B00080D0B0008D6
:10001000D90B000887020008451000080000000006
:10002000000000000000000000000000D90D0008E2
:1000300079090008000000006D0C0008C90E0008D6
:10004000B7010008B7010008B7010008B7010008B0
:10005000B7010008B7010008B7010008B7010008A0
:10006000B7010008B7010008B7010008B701000890
:10007000B7010008B7010008B7010008B701000880
:10008000B7010008B7010008B7010008B701000870
:10009000B7010008B7010008B7010008B701000860
:1000A000B7010008B7010008B7010008B701000850
:1000B000B7010008B7010008B7010008B701000840
:1000C000B7010008B7010008B7010008B701000830
:1000D000B7010008B7010008B7010008B701000820
:1000E000B7010008B7010008B7010008B701000810
:1000F000B7010008B7010008B7010008B701000800
:10010000B7010008B7010008B7010008B7010008EF
:10011000B7010008B7010008B7010008B7010008DF
:10012000B7010008B7010008B7010008B7010008CF
:10013000B7010008B7010008B7010008B7010008BF
:100140008D020008B7010008B7010008B7010008D8
:10015000B7010008B7010008B7010008B70100089F
:10016000B7010008B7010008B7010008B70100088F
:10017000B7010008B7010008B7010008B70100087F
:10018000B7010008B7010008DFF80CD000F04AF80A
:100190000048004711150008400400200648804729
:1001A00006480047FEE7FEE7FEE7FEE7FEE7FEE75C
:1001B000FEE7FEE7FEE7FEE7CD0E00088901000836
:1001C0002DE9F05F0546002092469B46884606468C
:1001D000814640241BE0284641464746224600F01F
:1001E00042F853465A46C01A914110D31146184658
:1001F000224600F029F82D1A67EB01084F462246E7
:100200000120002100F020F817EB00094E41201ECC
:10021000A4F10104DFDC484631462A464346BDE8E6
:10022000F09F0000064C074D06E0E06840F0010337
:1002300094E8070098471034AC42F6D3FFF7A8FFC4
:100240007818000898180008202A04DB203A00FAE1
:1002500002F1002070479140C2F1200320FA03F31D
:10026000194390407047202A04DB203A21FA02F01B
:100270000021704721FA02F3D040C2F120029140E0
:1002800008431946704700BFFEE7000010B50D4A4D
:1002900000210D4800F0F4F90A48406841F2143199
:1002A00088420BD10748007A042807D10548807A94
:1002B000082803D101200549087002E00020034905
:1002C000087010BD2C0000200068004010000020C5
:1002D00010B500F0CFF800F0BFF900F08DF900F094
:1002E000A1F810BD10B504460B48844209D1012184
:1002F000480600F0DDFC00214FF0007000F0D8FC53
:1003000008E00121880600F0D3FC00214FF0806056
:1003100000F0CEFC10BD00000064004010B50021CC
:10032000837A012202FA03F13D4A126842F0010287
:100330003B4B1A603A4A1C3212688A43384B1C33D2
:100340001A60027BCAB9364A0C3212688A43344BAF
:100350000C331A604288C38842EA0343304A403271
:10036000847A42F834300288838842EA03432C4A74
:100370004032847A02EBC4025360027B012A19D115
:10038000274A0C3212680A43254B0C331A60428804
:10039000038842EA0343224A4032847A42F83430E6
:1003A000C288838842EA03431D4A4032847A02EBC2
:1003B000C4025360C27A3AB9194A121D12688A43BC
:1003C000174B1B1D1A6006E0154A121D12680A43DE
:1003D000134B1B1D1A60028932B9114A143212687C
:1003E0008A430F4B14331A600289012A06D10C4A42
:1003F000143212680A430A4B14331A60427B012AF2
:1004000006D1074A1C3212680A43054B1C331A6096
:10041000034A126822F00102014B1A6010BD00006D
:10042000006600401FB50E208DF80A0000208DF8F0
:100430000B0001208DF80C000020ADF8000049F6FB
:10044000A400ADF802004FF6FF70ADF80400ADF85F
:1004500006000020ADF8080001208DF80D00684668
:10046000FFF75CFF01220221014800F031F81FBDB7
:10047000006800401CB50121022000F0F9FB0922B0
:100480000C21124800F011FB09220D210F4800F049
:100490000CFB4FF40050009002208DF804008DF802
:1004A000050000208DF8060001208DF80700694640
:1004B000064800F0B2FA4FF48050009002208DF808
:1004C00004006946014800F0A8FA1CBD000402407F
:1004D0001AB143690B43436102E043698B434361B3
:1004E000704730B5024600200023146824F002044F
:1004F0001460146844F00104146000E05B1C54684C
:1005000004F001041CB94FF6FF74A342F6D15468FD
:1005100004F001040CB900206CE08C79012C04D1AA
:10052000146844F08004146003E0146824F080042C
:100530001460CC79012C04D1146844F04004146098
:1005400003E0146824F0400414600C7A012C04D1F8
:10055000146844F02004146003E0146824F02004BC
:1005600014604C7A012C04D1146844F01004146017
:1005700003E0146824F0100414608C7A012C04D178
:10058000146844F00804146003E0146824F00804BC
:100590001460CC7A012C04D1146844F00404146073
:1005A00003E0146824F0040414608C78A407CD7868
:1005B00044EA05640D7944EA05444D7944EA05545A
:1005C0000D886D1E2C43D461146824F0010414605E
:1005D000002300E05B1C546804F001041CB14FF6DA
:1005E000FF74A342F6D1546804F001040CB100205A
:1005F00000E0012030BD00000EB501214FF0C060C9
:1006000000F046FB1348FFF76DFE684600F0C0F8A7
:1006100000208DF8060001208DF807008DF80800F5
:1006200000208DF809008DF80A008DF80B000120DC
:100630008DF802008DF8030003208DF804000120DE
:100640008DF805000620ADF8000069460148FFF767
:1006500048FF0EBD0068004008B54FF4C06000F0D0
:10066000FBFA40208DF8000000208DF801008DF885
:10067000020001208DF80300684600F0B1FA08BDC1
:1006800010B500F5D87303EB01131B6803F00403E6
:100690001372137A53B900F5D87303EB01131B6877
:1006A00040F2FF7404EA5353136009E000F5D87375
:1006B00003EB01131B686FF0604404EAD30353603B
:1006C00000F5D87303EB01131B6803F002035372A8
:1006D00000F5D87303EB01135B6803F00F0393720B
:1006E00000F5D87303EB01135B681B0AD37400F5A4
:1006F000D87303EB01139B68D37200F5D87303EB37
:1007000001139B681C0A147300F5D87303EB0113E3
:100710009B681C0C547300F5D87303EB01139B68A2
:100720001B0E937300F5D87303EB0113DB68D373CF
:1007300000F5D87303EB0113DB681C0A147400F591
:10074000D87303EB0113DB681C0C547400F5D873E9
:1007500003EB0113DB681B0E937411B92023C360F4
:1007600001E02023036110BD002141F214324260F8
:1007700004220272002242720822827200BF04E048
:1007800000F10B0251544A1CD1B20829F8DB704722
:1007900000218171C171017241728172C1728170D7
:1007A000C170032101710221417101210180704753
:1007B00010B502460020936803F08063B3F1806FA8
:1007C00000D110E0936803F00063B3F1006F01D132
:1007D000012008E0936803F08053B3F1805F01D1FA
:1007E000022000E00420042874D002F5C07303EB5B
:1007F00000131B6803F0010402F5C07303EB001340
:100800001C600B7A7BB94B7A0C8843EA445302F59F
:10081000C07404EB00142468234302F5C07404EB95
:100820000014236010E00B7A4C6843EAC4034C7A4E
:10083000234302F5C07404EB00142468234302F53B
:10084000C07404EB001423608B7A03F00F038B72E7
:1008500002F5C07303EB00135B6823F00F0402F58D
:10086000C07303EB00135C6002F5C07303EB00136D
:100870005B688C7A234302F5C07404EB0014636058
:100880008B7B1C064B7B44EA03440B7B44EA03232B
:10089000CC7A234302F5C07404EB0014A3608B7C74
:1008A0001C064B7C44EA03440B7C44EA0323CC7BC8
:1008B000234302F5C07404EB0014E36002F5C07337
:1008C00003EB00131B6843F0010402F5C07303EB54
:1008D00000131C6010BD000010B50246002321B1BA
:1008E000012907D002290FD109E090681D4C00EAC8
:1008F00004030BE090681C4C00EA040306E09068D7
:100900001A4C00EA040301E0002300BF00BF184CAA
:10091000181BA34216D007DC83B16FF08060184427
:1009200070B1022818D111E0B0F5007F10D0114C41
:10093000204448B1B0F5003F0ED10BE002230DE09A
:1009400000230BE0002309E0002307E0012305E07A
:10095000012303E0012301E0002300BF00BFD8B260
:1009600010BD000003000004000300080000031095
:10097000000100080001FFF77047000000B587B0D4
:100980000121084600F074F900208DF81A000120BA
:100990008DF81B0002208DF819008DF81800000258
:1009A000059005A9184800F038F84FF480600590CC
:1009B00005A9154800F031F807220A21124800F075
:1009C00074F807220921104800F06FF80121102067
:1009D00000F07EF94FF4E13001900020ADF80800FE
:1009E000ADF80A00ADF80C00ADF810000C20ADF821
:1009F0000E0001A9054800F0B7FA0121034800F0F4
:100A000099FA07B000BD000000000240001001404C
:100A100000E0401E0028FCD17047F0B50A460021D6
:100A20000023002400BF3DE0012505FA01F315680D
:100A300005EA03049C4234D105684F000326BE40FA
:100A4000B543056015794E00B5400668354305602D
:100A50001579012D02D01579022D16D185684F0028
:100A60000326BE40B543856055794E00B540866883
:100A700035438560456801268E40B543456045682D
:100A800096798E40B6B235434560C5684F0003265F
:100A9000BE40B543C560D5794E00B540C668354304
:100AA000C560491C1029BFD3F0BDF0B50023002458
:100AB0004D07ED0E02FA05F3CE1000F1200555F8B2
:100AC00026504E07F70E0F26BE40B543CF1000F15B
:100AD000200646F82750CE1000F1200555F8265084
:100AE00045EA0304CE1000F1200545F82640F0BD8C
:100AF0000246002013690B400BB1012000E00020EA
:100B000070470A04826170478161704700BFFEE749
:100B10001CB50121052000F0ABF801200090002059
:100B20008DF804008DF8070069460548FFF775FF4A
:100B30004FF40050009069460248FFF76EFF1CBD5D
:100B4000000002400008024070B504460D462946E8
:100B50002046FFF7CDFF012808D100BF29462046D7
:100B6000FFF7C6FF0128F9D0012070BD0020FCE787
:100B70001CB50121202000F07BF8402000900120CE
:100B80008DF8040000208DF806008DF80500012086
:100B90008DF8070069460F48FFF73FFF802000905F
:100BA00069460C48FFF739FF4FF4807000906946A2
:100BB0000848FFF732FF40210648FFF7A5FF8021D4
:100BC0000448FFF7A1FF4FF480710248FFF79CFF34
:100BD0001CBD00000014024000BFFEE7704700008B
:100BE00070B5002100230F22C4781CB3174C246871
:100BF00004F4E064C4F5E064C4F30721C1F1040423
:100C0000E3B20A4144789C40E1B284781440214325
:100C10000C07210E0E4C05786155047804F01F0571
:100C20000124AC4005786D11AD0005F1E025C5F853
:100C3000004109E0047804F01F050124AC40054D93
:100C40000678761145F8264070BD00000CED00E0F6
:100C500000E400E080E100E002490143024A116043
:100C6000704700000000FA050CED00E0704700003E
:100C700029B1064A12680243044B1A6004E0034A91
:100C800012688243014B1A607047000030380240FE
:100C900029B1064A12680243044B1A6004E0034A71
:100CA00012688243014B1A607047000040380240CE
:100CB00029B1064A12680243044B1A6004E0034A51
:100CC00012688243014B1A607047000020380240CE
:100CD00029B1064A12680243044B1A6004E0034A31
:100CE00012688243014B1A6070470000443802408A
:100CF000F0B5002100220024022500260223324FF5
:100D00003F6807F00C0121B1042905D0082937D12B
:100D100005E02E4F076036E02D4F076033E02A4F85
:100D20003F1F3F68C7F38056274F3F1F3F6807F0BC
:100D30003F036EB1264FB7FBF3F7DFF88CC0ACF181
:100D4000040CDCF800C0CCF3881C07FB0CF40CE0AE
:100D50001E4FB7FBF3F7DFF870C0ACF1040CDCF802
:100D600000C0CCF3881C07FB0CF4174F3F1F3F68F3
:100D7000C7F301477F1C7D00B4FBF5F7076002E075
:100D8000124F076000BF00BF0F4F3F6807F0F00130
:100D90000909104F7A5C0768D74047600A4F3F68DF
:100DA00007F4E051890A0B4F7A5C4768D7408760A7
:100DB000054F3F6807F46041490B064F7A5C47686E
:100DC000D740C760F0BD0000083802400024F4009E
:100DD00040787D0100000020704700000CB5002025
:100DE000019000903448006840F480303249086037
:100DF00000BF3148006800F4003000900198401CAA
:100E00000190009818B90198B0F5A04FF1D12A4887
:100E1000006800F4003010B10120009001E00020D3
:100E200000900098012846D123484030006840F0E7
:100E300080502149403108602048006840F440401B
:100E40001E4908601C48083000681B4908310860CA
:100E50000846006840F4004008600846006840F416
:100E6000A05008601648091F0860081F006840F07D
:100E70008070091F086000BF0F48006800F0007014
:100E80000028F9D040F205700E4908600A48083081
:100E9000006820F00300084908310860084600682F
:100EA00040F00200086000BF03480830006800F00E
:100EB0000C000828F8D10CBD00380240007000403A
:100EC00019544007003C02407047000010B5154817
:100ED000006840F47000134908601348006840F04F
:100EE00001001149086000200F49083108600E48D0
:100EF00000680E4908400C4908600D48091D08604B
:100F0000081F006820F48020091F0860002006499F
:100F10000C310860FFF762FF4FF000600149803933
:100F2000086010BD88ED00E000380240FFFFF6FECB
:100F30001030002421B1828942F40052828104E001
:100F400082894DF6FF731A40828170470246002065
:100F5000B1F5007F00D100BF13880B400BB1012019
:100F600000E00020704700002DE9FF4705460E46CF
:100F70000024A14600BFA046B08900B100BF2C8A62
:100F800024F44054F08804432C82AC8941F20C6074
:100F90008443B08831890843718908430443AC8194
:100FA000AC8A24F44074B0890443AC826846FFF7ED
:100FB0009FFE2048854202D01F48854202D1DDF8BD
:100FC0000C9001E0DDF80890A88900F4004040B1E1
:100FD00009EBC90000EB091031684900B0FBF1F7DB
:100FE00007E009EBC90000EB091031688900B0FB8C
:100FF000F1F76420B7FBF0F004012009642101FB44
:101000001078A88900F4004040B1322000EBC800FD
:10101000B0FBF1F000F00700044308E0322000EBE1
:1010200008106421B0FBF1F000F00F0004432C81A4
:10103000BDE8FF870010014000140140C1F3080221
:101040008280704700BFFEE70FB4054B10B503A9BF
:10105000044A029800F018F810BC5DF814FB000078
:10106000ED1400081400002002E008C8121F08C197
:10107000002AFAD170477047002001E001C1121F19
:10108000002AFBD1704700002DE9FF4F8DB00F46BD
:101090000546002606E025280BD0DDE90F12904713
:1010A0006D1C761C28780028F5D111B03046BDE8BB
:1010B000F08F0024A246A1460122EC4900E004433F
:1010C00015F8013F203B02FA03F00842F7D12878D7
:1010D0002A2810D06FF02F022878A0F130010929BA
:1010E00014D80AEB8A0102EB410144F0020400EB40
:1010F000010A6D1CF0E701CF5FEA000A03D544F452
:101100000054CAF1000A44F002046D1C28782E280D
:1011100017D115F8010F44F004042A280ED06FF0FF
:101120002F022878A0F1300109290AD809EB89019A
:1011300002EB410100EB01096D1CF2E757F8049B3B
:101140006D1C28786C280FD006DC4C2817D0682836
:101150000DD06A2814D104E0742810D07A280FD159
:101160000DE044F400140AE044F4801401E044F477
:1011700040146978814202D104F580146D1C6D1C05
:101180002A786E2A1FD00CDC632A31D004DC002AB6
:101190008BD0582A11D1A3E0642A68D0692A0CD1D7
:1011A00065E0732A2ED004DC6F2A73D0702A04D134
:1011B0009BE0752A6FD0782A6ED01046DDE90F12B9
:1011C0009047761C50E1C4F30250022806D0032851
:1011D00009D0042801CF09D0066045E101CFF117FD
:1011E000C0E9006140E101CF06803DE106703BE1CE
:1011F00017F8040B8DF8000000208DF80100EB4675
:10120000012003E057F804BB4FF0FF3061074FF0B7
:10121000000102D40DE008F10101884649450FDACA
:101220008045F8DB1BF808100029F4D108E008F12C
:10123000010188468142FADB1BF808100029F6D12B
:10124000DDE90F23AAEB08008146214600F036F9BC
:10125000304400EB080604E0DDE90F121BF8010B37
:101260009047B8F10108F7D221464846F7E00A2135
:10127000C4F302534FF0000B0891022B04D001CFAE
:10128000C117032B09D00AE0FF1D27F00707F7E875
:10129000020108E032E01FE020E000B2C117042B99
:1012A00001D140B2C117031E71F1000307DA4FF0FC
:1012B000000CD0EB0C006CEB01012D2302E02305A8
:1012C00004D52B238DF82430012303E0E30701D05C
:1012D0002023F7E7984658E00A2110E010210EE09D
:1012E00010204FF0000B08900CE010214FF0000B85
:1012F00044F004044FF00809089103E008214FF07E
:10130000000B0891C4F30253022B04D001CF00213B
:10131000032B06D006E0FF1D27F00707F7E80201C0
:1013200003E080B2042B00D1C0B24FF000082307C5
:101330002BD5702A07D0DDF820C08CF0100C5CEAA9
:101340000B0C05D00EE040238DF82430012308E07B
:1013500050EA010306D030238DF824308DF8252083
:1013600002239846DDF820C08CF0080C5CEA0B0CD8
:101370000BD150EA010301D1630706D530238DF864
:1013800024304FF00108A9F10109582A04D038A2ED
:101390000B9208AA0A920BE03AA2F9E75B46089A78
:1013A000FEF70EFF0B9B9B5C0A9A521E0A9213706B
:1013B00050EA0102F2D10A98ADEB000000F1200BD7
:1013C000600702D524F4803401E04FF00109D945CB
:1013D00002DDA9EB0B0000E0002000EB0B01414413
:1013E0000890AAEB010AE00306D4DDE90F232146A9
:1013F000504600F063F806444FF0000908E009A9E0
:1014000011F80900DDE90F12904709F10109761C76
:10141000C145F4DBE0030CD5DDE90F23214650463E
:1014200000F04CF8064404E0DDE90F12302090474C
:10143000761C0899481E08900029F5DC08E00A98F7
:101440000A990078491C0A91DDE90F129047761C31
:10145000BBF10001ABF1010BF1DC21465046DDE9A7
:101460000F2300F019F806446D1C1BE60928010043
:10147000303132333435363738396162636465660A
:1014800000000000303132333435363738394142CC
:1014900043444546000000002DE9F0410446002584
:1014A0001E461746880404D405E039462020B0477C
:1014B0006D1C641EF9D52846BDE8F0812DE9F04188
:1014C000044600251E469046C80301D5302700E09B
:1014D0002027880404D505E041463846B0476D1CF6
:1014E000641EF9D52846BDE8F081000070B50446B9
:1014F0000D46E1B20548FFF7A1FD00BF802103487A
:10150000FFF724FD0028F9D0204670BD00100140EF
:10151000FFF72EFBFFF732FAFFF7FAFAFEF7D8FED5
:1015200055A0FFF791FD5BA0FFF78EFD5DA0FFF7D3
:101530008BFD6648FFF788FD6548FFF785FD65A0D0
:10154000FFF782FD96E001217148FFF7FDFA0128BF
:101550005DD140216F48FFF7D7FA80216D48FFF732
:10156000D3FA4FF480716B48FFF7CBFA6A48FFF764
:10157000FBF869496948FFF71BF967496748FFF7B6
:1015800017F90446042C0AD000BF21466348FFF730
:10159000A3F90128F9D10003FFF73AFA02E060A0AD
:1015A000FFF752FD40215B48FFF7AEFA8021594812
:1015B000FFF7A7FA4FF480715648FFF7A5FA5CA031
:1015C000FFF742FD61A0FFF73FFD5348416865A06A
:1015D000FFF73AFD00BF504E0B3669A0FFF734FD10
:1015E00000250EE0715D6CA0FFF72EFD681C0A213E
:1015F00090FBF1F201FB120010B953A0FFF724FD9C
:101600006D1C082DEEDB50A0FFF71EFD00BF6448E7
:10161000007801282ED140213E48FFF775FA80213D
:101620003C48FFF76EFA4FF480713A48FFF76CFAC6
:101630005CA0FFF709FD00BF5F4E51A0FFF704FD5E
:1016400000250EE0715D54A0FFF7FEFC681C0A2126
:1016500090FBF1F201FB120010B93BA0FFF7F4FC84
:101660006D1C082DEEDB38A0FFF7EEFC00BF00205C
:101670004B49087067E700000D0A2043414ECDA892
:10168000D1B6BBD8BBB7CAB5D1E9C0FDB3CC0D0A42
:10169000000000000D0A20CAB5D1E9B2BDD6E8A30A
:1016A000BA0D0A000D0A20312ECAB9D3C3BBD8BB6C
:1016B000B7C4A3CABDA3ACB2BBD0E8D2AAC1ACBD6B
:1016C000D3CDE2B2BFD0BEC6AC0D0A0008180008E8
:1016D000BC1700080D0A20342EB1BEC0FDD6D0B50F
:1016E000C463616EB2A8CCD8C2CACEAA314D4270D2
:1016F00073A3ACCEAA73746D3332B5C463616ED775
:10170000EEB8DFCBD9C2CAA1A3200D0A00000000A9
:101710000000024000140240180000200068004051
:101720000D0A206E6F206D61696C20626F78000079
:101730000D0AD2D1CAB9D3C343414EB7A2CBCDCA49
:10174000FDBEDDB0FCA3A10D0A0000000D0AB7A28A
:10175000CBCDB5C4B1A8CEC4C4DAC8DDCEAAA3BA75
:101760000D0A00000D0A20C0A9D5B94944BAC545E3
:1017700078744964A3BA30782578200D0A000000F7
:101780003C3C2D43414E2D44454255472D4152523C
:1017900041592D3E3E0A000025303278202020009D
:1017A000100000200D0A43414EBDD3CAD5B5BDCAB5
:1017B000FDBEDDA3BA0D0A00370000200D0A20335C
:1017C0002EC8F4BFAAB7A2B0E5B5C443414EBDD3FD
:1017D000CAD5B5BDC0A9D5B94944CEAA30783133F0
:1017E0003134B5C4CAFDBEDDB0FCA3ACBBE1B0D1A1
:1017F000CAFDBEDDD2D4B4F2D3A1B5BDB4AEBFDA5A
:10180000A1A3200D0A0000000D0A20322EB0B4CF93
:10181000C2BFAAB7A2B0E5B5C44B455931BCFCA3C1
:10182000ACBBE1CAB9D3C343414ECFF2CDE2B7A2BC
:10183000CBCD302D37B5C4CAFDBEDDB0FCA3ACB0F6
:10184000FCB5C4C0A9D5B94944CEAA3078313331EA
:10185000342028D3C9D3DABBD8BBB7C4A3CABDA32D
:10186000ACCAC7D7D4BCBAB7A2CBCDB8F8D7D4BC12
:10187000BA290D0A00000000981800080000002096
:101880001800000068100008B018000818000020B8
:101890002804000078100008000000000102030482
:1018A0000102030406070809000000000000000010
:040000050800018965
:00000001FF
