:020000040800F2
:10000000080400209D01000849030008D3020008ED
:1000100045030008E50100089507000800000000FE
:100020000000000000000000000000008D03000838
:10003000E9010008000000004B0300087D040008EF
:10004000B7010008B7010008B7010008B7010008B0
:10005000B7010008B7010008B7010008B7010008A0
:10006000B7010008B7010008B7010008B701000890
:10007000B7010008B7010008B7010008B701000880
:10008000B7010008B7010008B7010008B701000870
:10009000B7010008B7010008B7010008B701000860
:1000A000B7010008B7010008B7010008B701000850
:1000B000B7010008B7010008B7010008B701000840
:1000C000B7010008B7010008B7010008B701000830
:1000D000B7010008B7010008B7010008B701000820
:1000E000B7010008B7010008B7010008B701000810
:1000F000B7010008B7010008B7010008B701000800
:10010000B7010008B7010008B7010008B7010008EF
:10011000B7010008B7010008B7010008B7010008DF
:10012000B7010008B7010008B7010008B7010008CF
:10013000B7010008B7010008B7010008B7010008BF
:10014000B7010008B7010008B7010008B7010008AF
:10015000B7010008B7010008B7010008B70100089F
:10016000B7010008B7010008B7010008B70100088F
:10017000B7010008B7010008B7010008B70100087F
:10018000B7010008B7010008DFF80CD000F018F83C
:1001900000480047B90700080804002006488047C7
:1001A00006480047FEE7FEE7FEE7FEE7FEE7FEE75C
:1001B000FEE7FEE7FEE7FEE781040008890100088C
:1001C000064C074D06E0E06840F0010394E80700A4
:1001D00098471034AC42F6D3FFF7DAFF3C0800082A
:1001E0005C08000800BFFEE77047F0B50A46002132
:1001F0000023002400BF3DE0012505FA01F3156846
:1002000005EA03049C4234D105684F000326BE4032
:10021000B543056015794E00B54006683543056065
:100220001579012D02D01579022D16D185684F0060
:100230000326BE40B543856055794E00B5408668BB
:1002400035438560456801268E40B5434560456865
:1002500096798E40B6B235434560C5684F00032697
:10026000BE40B543C560D5794E00B540C66835433C
:10027000C560491C1029BFD3F0BDF0B50023002490
:100280004D07ED0E02FA05F3CE1000F1200555F8EA
:1002900026504E07F70E0F26BE40B543CF1000F193
:1002A000200646F82750CE1000F1200555F82650BC
:1002B00045EA0304CE1000F1200545F82640F0BDC4
:1002C0000246002013690B400BB1012000E0002022
:1002D000704700BFFEE700001CB50121052000F0BB
:1002E00035F80120009000208DF804008DF80700FB
:1002F00069460848FFF779FF4FF40050009000204E
:100300008DF804008DF8070069460348FFF76DFF7C
:100310001CBD0000000002400008024070B5044609
:100320000D4629462046FFF7CBFF012808D100BF24
:1003300029462046FFF7C4FF0128F9D0012070BDEF
:100340000020FCE700BFFEE77047704729B1064A6E
:1003500012680243044B1A6004E0034A12688243A5
:10036000014B1A60704700003038024029B1064A3C
:1003700012680243044B1A6004E0034A1268824385
:10038000014B1A607047000044380240704700007B
:100390000CB50020019000903448006840F4803093
:1003A0003249086000BF3148006800F40030009016
:1003B0000198401C0190009818B90198B0F5A04F21
:1003C000F1D12A48006800F4003010B101200090FB
:1003D00001E0002000900098012846D123484030D9
:1003E000006840F080502149403108602048006892
:1003F00040F440401E4908601C48083000681B4912
:10040000083108600846006840F40040086008466B
:10041000006840F4A05008601648091F0860081FD3
:10042000006840F08070091F086000BF0F48006836
:1004300000F000700028F9D040F205700E49086005
:100440000A480830006820F00300084908310860B5
:100450000846006840F00200086000BF034808300A
:10046000006800F00C000828F8D10CBD00380240EC
:100470000070004019544007003C024070470000E3
:1004800010B51548006840F470001349086013481F
:10049000006840F001001149086000200F49083150
:1004A00008600E4800680E4908400C4908600D4875
:1004B000091D0860081F006820F48020091F0860DB
:1004C000002006490C310860FFF762FF4FF0006022
:1004D00001498039086010BD88ED00E00038024015
:1004E000FFFFF6FE103000240A884B881A438B88E1
:1004F0001A43CB881A430B891A434B891A438B89B9
:100500001A43A0F84420704721B1028842F001024A
:10051000028004E002884FF6FE731A4002807047A2
:1005200031B1B0F8442042F40042A0F8442005E084
:10053000B0F84420C2F30E02A0F844207047000037
:1005400000B58DB001210220FFF710FF40F2FF300F
:100550000B9040F28F60ADF828000020ADF830001D
:10056000ADF82A008DF832000AA9244800F094F86A
:100570006020ADF814000120ADF816000420ADF89D
:1005800018001F48008807900020ADF82000ADF843
:1005900022004FF48070ADF824000020ADF8260052
:1005A00005A9164800F02EF80821144800F068F854
:1005B0004FF40060ADF804004010ADF80600801064
:1005C000ADF808000B20ADF80A004FF48050ADF8EC
:1005D0000C000020ADF80E004FF48040ADF8100084
:1005E00001A90648FFF780FF01210448FFF78CFFAF
:1005F00001210248FFF794FF0DB000BD0004014047
:100600000000002070B5002400220023058C4FF666
:10061000FE7635400584028C8388048B4FF68F75F7
:100620002C40B51E2C400D882C43751E2A408D8908
:100630002A434D882A43104DA84202D00F4DA842AC
:1006400013D14FF6F7752A40CD892A434FF6FB7533
:100650002A408D882A434FF6FF652B404FF6FF5501
:100660002B400D8A2B434D8A2B43838004838D6856
:100670004563028470BD0000000001400004014099
:100680000A460021018B4FF6F7731940114301838D
:10069000704741637047000000220288184B98425F
:1006A0000ED0184B98420BD0B0F1804F08D0164BAB
:1006B000984205D0154B984202D0154B984204D170
:1006C0004FF68F731A404B881A43124B984207D04B
:1006D000114B984204D04FF6FF431A400B891A433E
:1006E00002804B68C3620B880385054B984202D099
:1006F000044B984201D18B7A038601238382704791
:1007000000000140000401400004004000080040D7
:10071000000C0040001000400014004010B500F034
:1007200003F8FFF70DFF10BD1CB501210520FFF7F1
:100730000DFE032206211548FFF79FFD0322052128
:100740001348FFF79AFD032206211148FFF795FD94
:100750004020009002208DF8040000208DF8060053
:100760008DF8070003208DF8050069460748FFF75C
:100770003CFD2020009069460548FFF736FD4020EB
:10078000009069460248FFF730FD1CBD000802409A
:100790000000024000BFFEE702E008C8121F08C1C7
:1007A000002AFAD170477047002001E001C1121FF2
:1007B000002AFBD170470000FFF78EFDFFF7AEFF68
:1007C00032E001211948FFF7A9FD012813D118488B
:1007D0000088B0F5707F05DA15480088403014496C
:1007E000088003E04FF480601149088010480188B8
:1007F0001048FFF74EFF4FF400510F48FFF78EFDF2
:10080000012811D10A480088402805DB08480088E3
:1008100040380749088002E0002005490880044864
:1008200001880448FFF735FFCBE7000000000240D5
:100830000000002000040140000802405C0800089D
:10084000000000200400000098070008600800086D
:100850000400002004040000A80700087F00000036
:040000050800018965
:00000001FF
